:020000041000EA
:1000000000B5324B212058609868022188439860DF
:10001000D860186158612E4B002199600221596106
:100020000121F02299502B49196001219960352056
:1000300000F044F80222904214D00621196600F024
:1000400034F8196E01211966002018661A6600F04E
:100050002CF8196E196E196E052000F02FF8012189
:100060000842F9D1002199601B49196000215960AB
:100070001A491B48016001219960EB211966A021F2
:10008000196600F012F800219960164914480160C1
:100090000121996001BC002800D000471248134993
:1000A000086003C880F30888084703B5996A0420EC
:1000B0000142FBD001200142F8D103BD02B5186610
:1000C0001866FFF7F2FF186E186E02BD00000240BE
:1000D000000000180000070000035F00212200005C
:1000E000F4000018222000A00001001008ED00E03C
:1000F00000000000000000000000000074B24E7A12
:1001000000200420F7010010C3010010C5010010F9
:10011000C1010010C1010010C1010010C101001097
:10012000C1010010C1010010C1010010C701001081
:10013000C1010010C1010010C9010010CB01001065
:10014000CD010010CD010010CD010010CD01001037
:10015000CD010010CD010010CD010010CD01001027
:10016000CD010010CD010010CD010010CD01001017
:10017000CD010010CD010010CD010010CD01001007
:10018000CD010010CD010010CD010010CD010010F7
:10019000CD010010CD010010CD010010CD010010E7
:1001A000CD010010CD010010CD010010CD010010D7
:1001B000CD010010CD010010CD010010CD010010C7
:1001C00000BE00BE00BE00BE00BE00BEEFF3058054
:1001D000103800BEF2EB8871401501106015011057
:1001E0003402001090A31AE700201F49086006C8D7
:1001F00081F3088810471D48006800282FD10DA4FE
:100200000ECC002902D000F012F8F9E71849194A7B
:10021000002000E001C19142FCD1174988471749ED
:1002200088471749884700BEFDE701C901C29A42C5
:10023000FBD3704760150110C0000020EC080020BF
:100240008C1D011000000420000004208C1D0110F2
:10025000001004200010042000000000704709482E
:1002600003F096F90047000008ED00E0000000D020
:10027000F0080020BC0E00203D1C0010850400107A
:10028000651D00105756000006005250ABB3605376
:10029000D89E001006005250861C0302E89E0010F3
:1002A000060052505422A29DF09E001005005250AC
:1002B000DE65F4688C1D0110F8B5C0460648074994
:1002C000091A8B10C90FC91810B5491003D0044B77
:1002D000002B00D0984710BDEC080020EC0800204F
:1002E00000000000054B10B5002B03D00449054861
:1002F00000E000BFFFF7E2FF10BDC04600000000B5
:10030000740E0020F09D0010F0B5DE4657464E46B4
:100310004546E0B5404C83B0A369DB061BD43F4B98
:100320003F4D9B463F4B404E9846404B99461022CE
:10033000A3691A42FCD12368DBB20D2B12D05946B7
:100340002A688B542B6801332B6033680133336088
:10035000A369DB06EBD503B0F0BCBB46B246A946A9
:10036000A046F0BD5B461878002819D04B460D27F3
:1003700000229B5E59469C4600222023BA46002A52
:1003800026D184452BD0A2691342FCD120600A7883
:1003900001310D3A504242410878D2B20028EED1E4
:1003A000002359462A6858468B54414601AA0193B6
:1003B00004F0DCF9019B192B17DD1D4B1D4A1B684E
:1003C0001B041B0C136000235A462B601370BCE700
:1003D000A2691342DAD0A2691342F9D1D6E7A26921
:1003E0001342FCD152462260CDE7002B0BDB104AB2
:1003F00011681922D21A104B53434B400D4A1B046B
:100400001B0C1360DFE70A4B1A680C4B53401B04AC
:10041000084A1B0C1360D6E700400340F40D00208F
:10042000EC0D0020F09D0010980D0020B40E00206F
:100430000C0005400C100540C409000024F4000025
:10044000042110B5102000F08FF8A023084A9B006B
:100450005360084B1361116801228A4306490A6000
:10046000064A126853401B04054A1B0C136010BD5A
:100470000000054024F40000001005400C00054079
:100480000C10054070B504F06FF9E121304C4902C1
:10049000200001F0C7F80221002000F065F80221D9
:1004A000012000F061F8C022236B12021340294A98
:1004B0000821136020000023012201F079F90021B6
:1004C000200001F0B3F91420234900F0E1F80121E4
:1004D000142000F0C3F85023A363626B183B134051
:1004E0001E4A1120136000F057F8D02380221B060B
:1004F00092025A62FFF7A4FF194B0A2000255D5FA4
:10050000002220230D261749002A14D1854219D034
:10051000A2691342FCD120600A7801310D3A5042A1
:1005200042410878D2B20028EED1D02380221B06A7
:1005300092025A61FEE7A2691342ECD0A26913420B
:10054000F9D1E8E7A2691342FCD12660E0E7C04692
:100550000040034030500340090300103450034072
:10056000B40E0020F49D0010094A10B594464024B2
:10057000830063441A68C0006240803414408022C3
:10058000520113431C60034B9C466044416010BD04
:1005900004C00140004001400123D02283401206E4
:1005A00093629361094A40219446830063441A6828
:1005B000C0004A408031114080225201134319602B
:1005C000034B9C46052360444360704704C00140D0
:1005D00000400140024B18688007C00F7047C046BA
:1005E00000C0064070B5EFF3108C72B60D4D2B684D
:1005F000002BFCD0BFF35F8F0724CB08C618C05C6C
:1006000001230C40A3401C000440034207D11843BF
:100610003070BFF35F8F2C608CF3108870BD1000BA
:1006200001F0C0FB2C0100D00021044B044ABFF3B1
:100630005F8F02C39342FAD17047C046000100D0D9
:10064000800100D0044A1078431CDBB2172B00D97C
:10065000102313707047C046980100200123834087
:10066000002904D0034A1360034A13607047034A09
:100670001360FBE780E200E000E100E080E100E0E1
:10068000024B10309B688000C058704700ED00E0BE
:1006900070B50D00EFF3108672B60F4A1368002B89
:1006A000FCD0BFF35F8F0D4B10309B6884001B594B
:1006B0000B4A934203D09D4201D001F08BFB074BC4
:1006C0009B681D51BFF35F8FBFF35F8F0022024B0A
:1006D0001A6086F3108870BD240100D000ED00E0A0
:1006E000CD010010F0B5DE4657464E464546E0B512
:1006F0000C0083B0EFF3108872B65D4A1368002BCC
:10070000FCD0BFF35F8F5B4B5B499A6803001033EB
:100710009F00D5598D4239D0A5424AD0574EAA1BC9
:100720002F2A33D801229246824091464846544AA5
:100730001268104001904846524A1060BFF35F8F24
:10074000EFF305829346002A35D0934201D001F0A1
:1007500041FB2A0053469A439068844208D175E0D1
:100760004B005B189B00F3189868A04234D01A0025
:10077000062151560029F3DA844253D0019B002B05
:1007800026D04A46404B1A603D4B1A60394B9B6855
:10079000DD51BFF35F8FBFF35F8F0022344B1A60D0
:1007A00088F3108803B0F0BCBB46B246A946A04609
:1007B000F0BD0D00EAE72A0053469A439068844250
:1007C000D6D1062010561300002809DA0D0031E0BA
:1007D0004A462C4B1A60D9E706201856002822DB1F
:1007E00042001118890074188A46A1689960E1795D
:1007F000D971062161569971002925DBA488F11A67
:100800006405241554440919E0240905490D2402FE
:100810002143998013181D4A9B001178F318997190
:100820001070ABE713005946002914D1FF319171C4
:100830001749918015490A789A71164A9B1B5B41AA
:100840005A43120D0A7099E71349E2E70620105641
:1008500013000028C4DA114A1149D21A083A50028A
:10086000400D014399800F4952080A43DA8085E719
:10087000240100D000ED00E0CD0100109C0100201B
:1008800000E100E080E100E080E200E0B90E00203D
:1008900001BDFFFFAAAA000001BD0000D601002093
:1008A00000F0FFFF00F8FFFF70B5EFF305810124B2
:1008B0000443EFF3108C72B6214A1368002BFCD06E
:1008C000BFF35F8F1F4B05001F4AED1A6D416A434E
:1008D000120D1E4D8900AE6852B27658A6421CD049
:1008E0000621595691421CD012215956914222D0CC
:1008F0001E215956914220D02A2159560324914253
:1009000010D0134B19781A708171BFF35F8F0022DA
:100910000B4B1A608CF3108870BDAB680D4C5C50AB
:10092000EFE700246100091989005B18FF21997124
:1009300009499980E5E70124F4E70224F2E7C0467B
:10094000240100D09C010020AAAA000000ED00E0D4
:10095000B90E0020CD01001001BDFFFF054B064A76
:100960001360064A136053609360D3601361536150
:10097000936170478080808000E400E004E400E040
:10098000024B9C466144890001607047400000347E
:1009900010B50400FFF756FE01002000FFF7F0FF3E
:1009A000FF232371BFF35F8F10BDC04610B5040055
:1009B000FFF748FE01002000FFF7E2FFFF23A380BE
:1009C000BFF35F8F10BDC04683680B4810B58446E7
:1009D000614462441201090159189B185C684A6815
:1009E0000120944201D802D00020C0B210BD1A6884
:1009F0000B689A42F9D8F7E7FFFFFF0F0A4B196817
:100A0000EFF3108072B60A68002AFCD0BFF35F8F44
:100A10001B68BFF35F8F00221A6080F3108840BF0D
:100A2000002000217047C046A00E0020F8B55746B0
:100A300045464E46DE46E0B598460CAB1C780DABFD
:100A40001B78070091469A460568002C59D1AC7B6B
:100A5000002C3BD0660029683619033E89194B7873
:100A6000AB73002B00D1EB7300238B704B700B70BA
:100A70002D4BE218BB6812019B184A461A60424689
:100A80005A600A9A9A600B9ADA6000238B704B7056
:100A90000B706B7B9B46002B26D022006B6859465F
:100AA000A86898475B465B005B442A68033B0028C4
:100AB00012D058469619B070D118D35C002B00D0D4
:100AC00073705B460C706B735C450ED0F0BCBB461C
:100AD000B246A946A046F8BDD3189C709119925D04
:100AE000002A1CD15B460B706C734A464346387D26
:100AF00000F044FB051E0AD10E9B002BE6D01D70B2
:100B0000E4E7660029683619033E8919B0E75346C1
:100B1000002BF1D12100386800F048FDECE75A7055
:100B20005B460B706C73E0E7FFFFFF0FF0B5DE462E
:100B300057464E4645460023E0B58BB00893684BB8
:100B40008200D45800239B46099000F093FA0200DB
:100B50000B006068EFF3108A72B6564601680029F0
:100B6000FCD0B246BFF35F8F21684F7B8C46002FCD
:100B70002ED0A5685B49A9467918090189444946E0
:100B80000868496805000E00AD1A9E41002E5FDD21
:100B900002000B00099800F0F1FA002300229946A8
:100BA000002306920793002398466368BFF35F8F84
:100BB0005A461A608AF310884346002B12D1002847
:100BC000C3D10BB0F0BCBB46B246A946A046F0BDAF
:100BD0000023002299460023069207930023002059
:100BE0009846E2E7089B494618023843C0476268C6
:100BF00005000E00EFF3108A72B61368002BFCD0CC
:100C0000BFF35F8F002E41DB2B00334302D02369FB
:100C1000002B56D12368D97B002905D01A684800DB
:100C200041185218033A57709A7B002A00D19F73DB
:100C3000DF73E268013FD35D0133D3555B46236127
:100C40006368BFF35F8F5A461A608AF310887CE7A7
:100C5000002E02D1002D00D09AE70021604600F05E
:100C600023FC4B461A685B68069207934B469B68C9
:100C700098464B46DB689946E368DB19013B1B78D5
:100C800008931B020343236100208EE72369002B96
:100C9000C0D0069A079B8021521BB34109068B42A4
:100CA00002D30122104B52420021049101310391E1
:100CB000494601914146200002970091FFF7B6FE98
:100CC000BCE700F0D7F92A00330012184B4180210D
:100CD00009068B42E8D30122034B5242E4E7C046A7
:100CE0008C0E0020FFFFFF0FFFFFFF7F10B5144C9D
:100CF0006368002B04D00A211248FFF741FE10BDA3
:100D00002300114A1021206800F0EAFA032000F0C5
:100D1000A5F9032000F09AFA03200C4900F0E8F945
:100D2000FFF790FC0A4B9C4603232375D0231B0638
:100D30001B6860446375074B80006060DC60DAE725
:100D4000E4010020A00E0020C90900102D0B0010A6
:100D5000400000348C0E0020F0B557464E46454604
:100D6000DE46E0B585B0019310AB1B780600039317
:100D700000239A46984600927268EFF3108B72B681
:100D80001368002BFCD0BFF35F8F3568AC7B002C61
:100D900000D16EE067002B683F19033FDB195A78DA
:100DA000AA73002A00D1EA73484AA118B26809015F
:100DB000521800980199106051600E9991600F9936
:100DC000D16042469A705A701A706B7B9946002B1C
:100DD00000D16BE022006B684946A86898474B46F3
:100DE0005B004B442A68033B002856D04846D7197D
:100DF000B870D118D35C002B00D07B704B460C70C0
:100E00006B734C4553D0F3681B19013B187873681A
:100E1000BFF35F8F42461A608BF310885346002B56
:100E200008D10002204305B0F0BCBB46B246A9463B
:100E3000A046F0BD039B002B46D00E9B00200F99CF
:100E4000984703000B433FD004000D1E1ADA009AA6
:100E5000019B121BAB410092019380221206934228
:100E600004D301231A4C5B4200930194039B9A46DE
:100E700082E77368BFF35F8F1C608BF310880120DB
:100E80004042D0E700F0F6F88022001969411206CE
:100E9000009001919142E9D3E3E7D3189C70D119F6
:100EA000D25D002A00D05A704B460B706C73307DB7
:100EB000009A019B00F062F982460028A3D021002D
:100EC000306800F073FB9EE70020ACE7FFFFFF0FE8
:100ED000FFFFFF7FF0B5EFF30583CE46474680B5B1
:100EE00005000C0085B0002B12D02A4A0020536A5E
:100EF000A34203D3926A0130AA4204D305B0C0BC16
:100F0000B946B046F0BD1B1B5A1E9341D8B2F5E757
:100F1000214E02930193214B0200009330000B00FD
:100F2000FFF71AFF031EE0DD20BF7168EFF31087A3
:100F300072B60A68002AFCD0BFF35F8FDAB294461B
:100F4000FF2230681A40417B61450FD00168894615
:100F50005100884649469044414403398978002924
:100F600004D13269934209D1316107E0F1681B0A6B
:100F70008A18013A1278DBB29A4207D07368BFF33D
:100F80005F8F00221A6087F31088AEE7614600F099
:100F90000DFBF3E700400540E4010020FD090010CF
:100FA000F0B5EFF30582D6464F4646461000C0B571
:100FB0001038EFF3108872B6214C2368002BFCD058
:100FC000BFF35F8F0123190081401E4D1F0069632D
:100FD000AA461D4D29601D4D2E78AC463500C540F2
:100FE0002F402B4215D053465F6A194B8500EB58B2
:100FF0009F4218D36246174B8E43EB581670BFF3CF
:101000005F8F0022226088F31088002B06D098475B
:1010100004E0BFF35F8F276088F31088E0BCBA4616
:10102000B146A846F0BD0C4B92009C466244136842
:101030001360BFF35F8F0023236088F31088EDE710
:10104000280100D0004005403C700540BA0E002049
:10105000A40E0020880D0020D03F054010B5034BA2
:1010600001001800024AFFF7BDFA10BDB80E0020BB
:10107000109E0010034B596A0A00986A596A8A4206
:10108000FAD170470040054070B504000D00174AC2
:10109000536A1900966A536A8B42FAD130001900DC
:1010A00024184D41AB4216D813D0104B2A005B6A6E
:1010B0009D4203D90D494B6A9342FCD3934207D119
:1010C0000A4A02E0516A994202D1916AA142F9D3D7
:1010D00070BDA642E9D9054B5B6A1C005A1CEFD0D3
:1010E000012201246442E5175242E3E70040054033
:1010F00070B504000D00EFF3108672B61A4A13683B
:10110000002BFCD0BFF35F8F002D1BD02000FFF71A
:10111000B7FA164981420AD02000FFF7B9FA012137
:101120002000FFF79BFA0123A340114A1360114BE3
:10113000A400E550BFF35F8F00220B4B1A6086F3CB
:10114000108870BD0121A1400A4BA200D5500A4B66
:1011500020001A788A4305491A70FFF7C3FA002164
:101160002000FFF77BFAE5E7280100D0A10F00106F
:1011700038600540880D0020BA0E0020F0B54F46BB
:10118000D6464646C0B507002B4C616A0D00A66ADC
:10119000616AA942FAD18B4208D805D00120E0BC8F
:1011A000BA46B146A846F0BDB242F7D9EFF3108A6D
:1011B00072B6224801680029FCD0BFF35F8F012579
:1011C000BD401F491C4C8846097889462943C9B24D
:1011D0008C46414660460870391D890065630A5196
:1011E0001849B8004350216A0020294219D0616A89
:1011F0000800A66A616A8142FAD18B4219D801D1EE
:10120000B24216D8CC450BD00B4B1F221D625D633A
:1012100001233A4093400C4A136043464A461A70F1
:101220000120BFF35F8F0022044B1A608AF31088FD
:10123000B5E70020F5E7C04600400540280100D092
:10124000BA0E0020A40E002080E200E0EFF3108C24
:1012500072B60A490B68002BFCD0BFF35F8F0123E5
:101260008340074A0748136202789A430270BFF32B
:101270005F8F00230B608CF310887047280100D02B
:1012800000400540BA0E002070B506000D001400A5
:1012900000291DD0002A12D0736880689847620028
:1012A0006B0012195B193168033A033B002808D020
:1012B0008A189570C818CB5C002B0BD104702800DD
:1012C00070BDCB189C7088188A5C002A05D1057007
:1012D0002000F5E753700470F1E75A700570F7E7E6
:1012E00010B583600023CCB24373013342600473B2
:1012F0008373C4730068421C012C05D90133DBB22F
:10130000137003329C42F9D1FF230B405A00D318CB
:10131000C01800230338437010BDC04670B50500E7
:101320000C1E07D0630001681B19033BCB185A78C9
:10133000002A01D1200070BD500080180338091820
:1013400000204E784870210058702800FFF79CFF5D
:10135000310004002800FFF7E1FF0600002C20D038
:101360000028E7D0320021006B68A8689847720017
:10137000630092191B192968033A033B002808D01F
:101380008A189470C818CB5C002B00D0537006707C
:10139000D0E7CB189E7088188A5C002A00D05A705B
:1013A00004703400C6E7C046F0B557464546DE46F1
:1013B0004E46E0B50D006F0001687F19033F040041
:1013C000C85D83B00192CA19002850D043001B1891
:1013D000033BCB185E78B446002E1AD1019E002E36
:1013E00042D0E67B002E04D073009B19CB18033B40
:1013F0005D70A37B002B00D1A573E57300282FD16E
:101400000023537003B0F0BCBB46B246A946A046C9
:10141000F0BD72006244033A8A1851788846002170
:10142000517089465970320001002000FFF72CFFEF
:1014300043468246002B07D05B0021684344033BB0
:10144000CB185A78002A16D1424651462000FFF7A1
:101450001BFF2168019BCA19002BC2D10028CFD0E5
:1014600043001B18033BCB1800219970C8E7019B70
:10147000002BB6D1C4E7500080180338091848780B
:10148000834648464870587041462000FFF7FCFEEE
:10149000594680462000FFF741FF414602002000E8
:1014A000FFF7F2FE8046CFE7F0B557464546DE46E9
:1014B0004E46E0B583B00191457B04006F000068A3
:1014C0007F19033FC15DC219002952D04B005B1840
:1014D000033BC3185E78B446002E1CD1019E002E3B
:1014E00044D0E67B002E04D073009B19C318033B45
:1014F0005D70A37B002B00D1A573E573002931D16A
:10150000002328005370617303B0F0BCBB46B246A1
:10151000A946A046F0BD72006244033A8218507892
:101520008046002050708146587032002000FFF73E
:10153000ABFE43468246002B07D05B002168434444
:10154000033BCB185A78002A17D142465146200057
:10155000FFF79AFE019B01002068C219002BC0D141
:101560000029CDD04B005B18033BC31800209870B6
:10157000C6E7019B002BB4D1C2E7500080180338A6
:1015800009184878834648464870587041462000FC
:10159000FFF77AFE594680462000FFF7BFFE41461E
:1015A00002002000FFF770FE8046CEE770B5050010
:1015B00000292CD0437B8B422ED04C00006864184D
:1015C000033C0419A278002A21D053009B18033B46
:1015D000C25CC6188A4202D11BE0002A08D0530020
:1015E0009B18033BC3185A788A42F6D162785A7026
:1015F000002301222800A3706370FFF7D5FE697BEA
:1016000002002800FFF740FE6873012000E0002080
:1016100070BD63783370EBE701221900FFF7C4FE59
:10162000F2E7C046F8B5CE464746040080B506202E
:101630000D0000F08FFA061E53D0534B5349E318A8
:101640005A1E93418022120494465B429B0D504ADD
:101650009B05634413604F4A136018008A689043E7
:10166000FBD1494B4C4AE31859424B4180215B0066
:1016700049000620995200F06DFA2900C00001F0DF
:10168000E1FFC30932D14022012190466162A36289
:10169000266BF30736D427008025E36A00232C3716
:1016A0006D013D432B600620266300F053FA41464E
:1016B000800001F0C7FF236B06009846DB073BD490
:1016C0006023E26A5A400E3313402B604346236383
:1016D000802310229B013B431A60304B236303237A
:1016E000A3643000C0BCB946B046F8BD2C4A934252
:1016F0003FD900232B492C4A6162A362266B904696
:10170000F307C8D52200C02330329B011343234A7C
:1017100006201A60656AA36AAD01ED1800F01AFA96
:10172000224901F08FFFAD020100280001F08AFF7D
:101730000021FFF7A9FCAEE72200C02330329B0155
:101740001343164A06201A60636AA26A9B019946EF
:10175000914400F0FFF94B4614499B02994601F071
:1017600071FF0100484601F06DFF0021FFF78CFC7E
:10177000A6E77F22990188460240013252081900EB
:101780009044130082E7C0460080FCBF00C00040C8
:1017900000E0004000F00040B40E00200103000013
:1017A000FEFF0000FFFF0000C0FF3F004E0E0000E4
:1017B0000539013AF8B5D2004C0105001443002B5D
:1017C00006D0013B5A4253419B00234302241C4351
:1017D0002E6BF3070BD46E22EB6A290063401A408C
:1017E00080232C315B010B431A602E63F8BD2A0065
:1017F000C02330329B0113430A4A06201A606F6AE5
:10180000AB6ABF01FF1800F0A5F9074901F01AFF04
:10181000BF020100380001F015FF0021FFF734FC82
:10182000D9E7C046010300004E0E0000F8B5066B74
:1018300004000D01F3070BD4E36A22005D4010237E
:101840001D4080232C325B0113431D602663F8BDCD
:101850000200C02330329B0113430A4A1A60476AD0
:10186000836ABF010620FF1800F074F9064901F0F1
:10187000E9FEBF020100380001F0E4FE0021FFF79D
:1018800003FCD9E7010300004E0E000010B50C2048
:1018900082B000F0B7F9FEF79DFE002810D08B4B08
:1018A0008B488B498B4A186059609860D9601861E1
:1018B00059619861D961186259625A6202B010BDCB
:1018C000854CA06700F0A6F90122844B1A60636C76
:1018D000012BFCD10322824B1A607F4A936B012BB0
:1018E000FCD1013301217F4A7F480093043300F08B
:1018F00037F905237D4A009301217D4800F030F936
:101900007C4B5A68FF2A02D8802252005A608022FB
:10191000734B6E4C12011A602169002907D060696F
:1019200001F090FE013043001B18033BFDD2E02282
:10193000704B714819680A400260022219685140D0
:1019400001320A40042102609A681142FCD08021D1
:101950006A4A09011160802252005A60684B236173
:10196000684B5968FF2900D85A60032201215B4B5C
:101970001A60644A93681942FCD0E023106803405F
:1019800061480360126803234A40022113405D4A04
:10199000036093681942FCD080215C4B09011960F7
:1019A00080215B4B4900516063615A4B5A68FF2AA2
:1019B00000D859608022584B12011A60E169002951
:1019C00007D0606901F03EFE013043001B18033B65
:1019D000FDD2E0234F4A11680B4050490B60802133
:1019E0004F4B090119608021394B49005160E36177
:1019F0004C4B5A68FF2A00D8596080224A4B12018A
:101A00001A60216A002907D0606901F01BFE0130CD
:101A100043001B18033BFDD2E023424A11680B40F0
:101A200042490B608021424B0901196080235B0011
:101A300053608022264BD20223623E4B596891426A
:101A400000D25A6080223C4B12011A60616A002960
:101A500007D0606901F0F6FD013043001B18033B1D
:101A6000FDD2E023334A11680B4034490B608021DA
:101A7000334B090119608023DB025360154B63620D
:101A8000304B5A68FF2A02D8802252005A608022C6
:101A90002D4B12011A60A169002907D0606901F07D
:101AA000D1FD013043001B18033BFDD2E023254A42
:101AB00011680B4025490B608021254B09011960F5
:101AC00080235B005360124BA361F7E6F00800200F
:101AD000006CDC021BB70000008000403CB00040FE
:101AE00030B00040002F685900800240008C8647CB
:101AF00000C00240308000403090004030A00040E4
:101B0000001BB7003C8000403C9000403CA00040DF
:101B1000405973075480004054B000405490004036
:101B200054A000406080004060B0004060900040E1
:101B300060A000406C8000406CB000406C900040A1
:101B40006CA000404880004048B0004048900040F1
:101B500048A00040014B8000C0587047F0080020AA
:101B6000F8B5040022481E0017000D0001F06AFDC0
:101B70000100380001F066FD069B36041B031E437E
:101B80002368002B22DB1B4B1B49E3185A1E934191
:101B90008022920194465B421B0B184A1B0363444C
:101BA0001360174A13601F008A689743FBD1C02255
:101BB000231D92011A4321232560A060136023682E
:101BC000002BFCDA0823E6601360F8BD3F2322688F
:101BD0001340AB42D7D1A3681B051B0D8342D2D162
:101BE000EE22E368D2021340B342CCD1EDE7C04607
:101BF000001BB7000040FDBF00C0004000E00040F7
:101C000000F000408023024A9B000343D3627047E8
:101C100000800540AA23064A1B0113602F230549B3
:101C2000D360054B19605368002BFCDA7047C0463F
:101C30000040024000B0FA00006002402C4B2D4AE8
:101C400070B51A602C4A2D4B2D491A6014008B6810
:101C50009C43FBD12B4D2C4EB54208D2013E761B46
:101C6000B60808CD984723000134B342F9D1FFF7F5
:101C70000DFE264A214B1A60214A9368DB43DB01A3
:101C8000DD09002BF9D14022214B224C224E9A67CC
:101C90005A671A67DA66B44208D223682000002B1C
:101CA00020D00834FEF782FEB442F6D31B4C1C4E03
:101CB000C022B168200002F04BFCB460FEF7B4FC17
:101CC000FEF74CFEFFF712F8164C174EB44208D23E
:101CD000013E361BB60808CC98472B0001359E42C2
:101CE000F9D170BD0834FEF753FEB442D5D3DDE719
:101CF00000E00040BFCDFBFEFE7F3C0000F0004056
:101D000000C00040D8080020E8080020FFFFFF01C5
:101D100000F00140D0080020D8080020000000207A
:101D200000ED00E0E8080020EC08002000BEFDE720
:101D3000094A03001068002805D00849C3188B42DF
:101D400007D81360704706480449C31810608B42D7
:101D5000F7D901204042F5E7E80D002000000420FB
:101D6000BC0E002010B5FFF7E1FFC04630B50D00F6
:101D700083B01900002A0BD0074B084C0192009346
:101D800002002B00200001F0C3FB0120FFF7CEFF73
:101D9000034B1A00F1E7C046349E0010449E001029
:101DA0000C9E00100FB400B5084883B002F06CFC24
:101DB000049B002B07D005A91800019101F0C8FB76
:101DC000034802F061FC0120FFF7B0FF749E001091
:101DD000849E001010B50148FFF7E4FF889E0010B4
:101DE0009A4200D2885470477047C046F8B55746AB
:101DF000DE464E464546E0B599460A9B07009A46A0
:101E00000D9B884693460B9C9B073BD10C9B9C42A9
:101E10003DD21E1B0B9415000C005E442A004B465D
:101E2000013521002020B847B542F7D1A0460B9CD0
:101E3000002C20D0454636195346321B013C185D14
:101E400029004B46B847002CF6D12B0035009846A8
:101E50000D9B9B070FD55B46EC1A0C9BA3420AD93E
:101E6000464698462A004B46310020200134B847A8
:101E700001354445F6D32800F0BCBB46B246A9461E
:101E8000A046F8BD16001500002CD3D1E0E71600DF
:101E9000002CCFD11500EEE7F0B54F464646D646AA
:101EA000C0B584B098460EAB1B7894469946129BF9
:101EB0000D9C109F119E9A0725D4002E65D1BC421F
:101EC00021D201221A409246202C00D1E9E00C9A3E
:101ED000551E302202E0202C00D17BE001342A552F
:101EE000A742F8D85246002A0DD0B4420BD20C9A21
:101EF000551E3022202C02D171E0202C2DD001342F
:101F00002A55B442F9D1DA063CD55A052ED4002C14
:101F100028D10F9A102A00D1B6E0022A00D1BCE0E5
:101F200030220C9C227001244A46002A65D15A07AF
:101F300000D499E02B220C9D2A55013403930C9B6D
:101F400062460093029643460194FFF74FFF04B0A8
:101F5000E0BCBA46B146A846F0BD2024DA06EDD56D
:101F60005A0503D4A74266D0B44264D00F9A102A0F
:101F700071D0022A57D0202CE0D022000134302525
:101F80000C9FBD54202CD9D0CEE7012215001D4056
:101F9000AA461A4236D04A46002A4AD10C321A4280
:101FA00047D1BC42A1D2202C91D1202E17D8202479
:101FB000DA06C3D55A051BD4202F01D0202ED5D147
:101FC0001F220F9D102D6FD0022DD8D162250C9F9E
:101FD000BD54D0E75246002A79D0202EBDD9202406
:101FE000DA06ABD55A0503D4202FE9D0202EE7D04E
:101FF0000F9A102AA2D12024A0E72D220C9D2A5549
:1020000001349BE7BC4200D37DE7202C00D05EE783
:10201000DA06F0D55A05EED4202F62D0202EEAD170
:1020200034001F22CDE7202C00D187E722000134A5
:10203000CCE7013EB5E7621E012CC2D10F9A102AEF
:1020400000D06AE79A063BD558220C9C2270283AA9
:102050006270022468E79A060ED4202CCBD0782236
:102060000C9D2A55013486E71A0700D466E7202222
:102070000C9D2A55013461E7202CBCD058250C9AC0
:1020800012191570013476E79A0608D558220C9C6F
:10209000227030226270022446E76032F7E778222D
:1020A000F5E7002A83D1B3E7A21E013C9D0603D4C5
:1020B00078250C9FBD5460E758250C9FBD545CE704
:1020C00078220C9C2270483A627002242CE7DA06CF
:1020D00000D433E75A058BD4202F00D044E71F22C9
:1020E0006FE73C001F226CE710B5002800D110BD3F
:1020F00002F07EFAFBE7C046F0B557464E4645462D
:10210000DE46E0B599B08246894690460893229A09
:10211000239B1000190001F066FD002800D0CDE0DF
:10212000229823990122D94B524201F057FD0028F1
:1021300000D0C3E0229823990122D54B524201F0EE
:1021400037FD002800D0B9E022982399002200230F
:1021500001F02EFD002800D0F1E1229E239F802374
:10216000269ADB001A400D92269A1A4201D10623C4
:1021700024938023269A1B011A403B00934609961C
:10218000334300D0B3E0002A00D0C2E10023002492
:102190000A930B94002304250993259B0024AB424A
:1021A00000D95C1B0223269A1A400C92269A1342ED
:1021B00003D06B426B415B421C40099B002B07D054
:1021C0000A9A0B9B3000390001F089FC06000F00D1
:1021D000229823990022002301F0EAFC002803D072
:1021E000802109067B181F00269AAA4B00960197AA
:1021F0001340089E0493249B0394029342463300A9
:102200004946504600F0AAF90400002D67D020206E
:10221000269A4946024013005A4253415B42621CCF
:1022200018400A92330022004530D047099A6F1EA9
:10223000D317D4185C40D30F9B46002501E0202D16
:1022400013D008AA94461F23200063440A210135B5
:102250005E1901F0F7F93031317020000A2101F0E8
:10226000F1F926000400092EE9D80523069300237E
:1022700004930A3303935B46089E029310AB0A9AB9
:10228000009349463300504605970195FFF704FE39
:102290000C9A0400002A22D04246851A259AAA42A6
:1022A0001DD9B04657461600220043464946202015
:1022B0000135B8470134AE42F6D810E0269B4246BD
:1022C0000493259B49460393249B50460293229BEB
:1022D000239C00930194089B00F040F90400200027
:1022E00019B0F0BCBB46B246A946A046F0BD6A4B49
:1022F00078009C46400D604401F088FC674A684BBA
:1023000001F00BFC674A684B01F0E0FB674A3B03B6
:102310001B0B1A4304000D0009981100644B0022A6
:1023200001F0CBFB634A644B01F0F7FB02000B00AA
:102330002000290001F0CAFB01F080FC099001F0A7
:1023400065FC5E4A5E4B04000D0001F0E6FB0022D6
:102350005C4B01F0BBFB01F071FC5B4A5B4B29005D
:102360000C90200001F0D9FB04000C980D0001F046
:102370004DFC574A574B01F0D0FB02000B002000E8
:10238000290001F09AFB04000D0002000B000A94E2
:102390000B9501F0C2FB04000D000A980B99020096
:1023A0000B0001F093FB00220E900F914A4B20008E
:1023B000290001F094FB0022484B01F087FB02004A
:1023C0000B002000290001F08AFB0022444B01F0A1
:1023D0007DFB02000B002000290001F080FB0A9A1F
:1023E0000B9B0D0080210400C905002001F065FB56
:1023F00002000B002000290001F068FB02000B0026
:102400000E980F9901F06BFB0022284B01F05EFB48
:10241000344B0C9C9C4664442305002201F07DFB58
:1024200004000D0002000B00300039000A940B95E7
:1024300001F0BEFB00285DD123002A00C6250999C2
:1024400063318D42AD4159466D420435002900D1BA
:10245000A3E6134363D030003900234A234B01F035
:10246000B5FB002807D0002230003900204B01F0D6
:102470009FFB002853D1249B002B00D18DE60D9BA0
:102480005A1E9341249AD31A249386E6FFFFEF7FC6
:10249000FFFFEFFFFFF7FFFF01FCFFFFFB799F50FE
:1024A0001344D33FB3C8608B288AC63F0000F03F77
:1024B0000000F83F61436F63A787D23F71A379099A
:1024C0004F930A400000E03F1655B5BBB16B024088
:1024D000EF39FAFE422EE63F00002C400000244077
:1024E00000001840FF0300002D431CEBE2361A3FAA
:1024F00080842E41099B0022013B09932000164B4A
:10250000290001F0ECFA0A00010003000A910B9285
:1025100094E7002300240A930B9400230993249A40
:10252000099B9A4214DDD31A013B24938023269AF7
:10253000DB001A4300230025269209932DE6802212
:1025400012069446229B1E00239B63441F0006E64E
:1025500000232493EAE7C04600002440F0B5454636
:10256000DE464E465746E0B595B08B4690469946B6
:102570001E9A1F9B0A9019001000209D01F033FB4A
:10258000002800D0B0E11E981F990122C74B52428B
:1025900001F00EFB002800D037E11E981F990122A0
:1025A000C34B524201F01AFB002800D0A7E01E984E
:1025B0001F990022BF4B01F011FB002800D088E0DA
:1025C0001E981F990022BC4B01F0F2FA002800D09F
:1025D0007FE01E981F990022002301F0E9FA0028ED
:1025E00000D0FAE000230B938023229C229ADB0088
:1025F0001C401A4200D102E1092D00D87CE106A955
:102600008C462C00172200233021093C6244013300
:10261000D154EF1A202B00D132E1A342F7D100228E
:10262000A44B069207931E981F9901F007FB050023
:1026300001F0ECFA02000B001E981F9901F03DFA20
:10264000069A079B01F069FA0890099101F01AFBBC
:10265000060001F0D7FA02000B000898099901F072
:102660002CFA0022954B0890099101F0B7FA002846
:1026700000D1D2E00136300001F0C4FA069A079B7F
:1026800001F0A4FA002801D000260135AA46002F47
:1026900000D098E0280001F0B9FA02000B001E9863
:1026A0001F9901F00AFA854B002206000F0001F085
:1026B0007FFA0CAB9A46002845D100223000390041
:1026C0007E4B01F08BFA00283DD1EB073BD501355D
:1026D00039E0229B42460493219B594603930A9872
:1026E0001E9B1F9C0295009301944B46FFF704FD2F
:1026F00015B0F0BCBB46B246A946A046F0BD229B31
:102700005B0767D403226E4B2299019203912199B2
:102710000291009342464B4659460A98FFF766FBE2
:10272000E6E706AA94461723280063440A210134E9
:102730001E1900F05FFF3031280031700A2100F0CF
:1027400059FF051E76D0202CEBD10323229A13408B
:10275000012B1DD1219B002B1AD00B9B002B00D0ED
:10276000BBE0229A0C33134200D0B6E0219BA34277
:1027700000D887E006AB9C4617223023624404E071
:102780002199013413558C4259D0202CF8D12024A2
:10279000229B01940393219B02935346B9E706AA17
:1027A000944617230A216344300001341D1900F0B8
:1027B00049FF3031297030000A21013F00F042FF0B
:1027C000092E46D90600202CE9D155460CAB202411
:1027D0009A46B8E704223B4B96E71E9A1F9B0020BF
:1027E000002101F06AF901230B938023229C229A95
:1027F000DB001E901F911C401A4200D0FCE6002214
:10280000314B0627069207930DE7229B0393219BEA
:102810000293042301932D4B7BE70022089809992A
:10282000264B01F0C5F9002800D02FE7002E4FD12C
:1028300001362BE70323229A1340012B66D0202C6C
:10284000A6D00B9B002B1FD02D23524613550134CD
:102850009EE75546202CB9D030233A19002F08D0D6
:10286000172006A9013409180B55202CAED094422C
:10287000F6D10CAB9A462E2352461355013462E72B
:102880002024CCE6202C83D0229B5B0708D4229BFB
:102890001B0700D47CE7202352461355013477E709
:1028A0002B2352461355013472E7C046FFFFEFFF5A
:1028B000FFFFEF7F65CDCD4165CDCDC10000E03F8D
:1028C0009C9E0010949E001080842E41A49E0010B7
:1028D000F30700D4DAE60136D8E6219B013B2193C9
:1028E000A34200D946E7AAE7229B0393219B0293C8
:1028F00003230193074B0CE7074BEA009B185C6826
:102900001B682F000693079400248CE6219B002B64
:1029100095D022E7A09E0010E0A10010F0B5574628
:10292000DE464E464546E0B5A5B01F002E9B9146BB
:102930000D93CA4ACA4B82468B461A60002900D1C1
:1029400029E2002338789846002800D12BE2C54BB5
:1029500044460C93C44B55464E460E930AE0631C06
:102960009846220033005946A84744463878002844
:1029700000D187E001372528F1D108239A46043B8E
:102980009946023B9846013B00229C460B943878BE
:10299000791C0300203BDBB2102B03D80C9C9B005E
:1029A000E3589F460300303B0B9C0B92092B3AD90E
:1029B000002398462A2800D1DDE000239A462E28DD
:1029C0004BD00300683BDBB2122B1ED80E9A9B0043
:1029D000D3589F4663460F001A43D8E743460F007B
:1029E0001A43D4E74B460F001A43D0E710230F00D9
:1029F0001A43CCE753460F001A43C8E780235B0015
:102A00000B9A78781A430B9201310F0067284FD840
:102A10002428A4D90300253BDBB2422B9FD893493D
:102A20009B00CB589F46002398460B9B47469C46ED
:102A300000E00131BB00DB195B001F180878303F54
:102A40000300303B092BF4D963460B930023B846AF
:102A50009A460F0001312E28B3D180200B9AC00076
:102A600002430B9230225242944678780B00844401
:102A70006246092A00D8AAE12A2800D1B9E10F004C
:102A800001319EE7A046AA46B146C84503D30123BB
:102A90005B424B4498464B46424659460020D0473D
:102AA000200025B0F0BCBB46B246A946A046F0BD0A
:102AB00001006939C9B20F2900D950E701238B40C1
:102AC0009C466B4B994663464A4613400F936246B9
:102AD0004B461A4200D068E10A2956D0072900D097
:102AE0003DE70D9B02CB9846002900D092E10B9B5D
:102AF00010211A008A4310001131084381468020BA
:102B00001A00C0000240110003421CD114AB9C46C5
:102B10001F220F2362440D959C4615000F9B0B94BA
:102B200002E0202B0CD0110064460C40200037300E
:102B3000092C00D807380133E8540A090F29F0D8C6
:102B40000B9C0D9D0F934B4608220693534605920E
:102B500008320392002204930F9B029201931CAB54
:102B600022000093594633002800FFF795F94346A9
:102B700004000D93FAE60D9B04CB9046002A79DB06
:102B800078780D930F00013117E70D9B02CB14935A
:102B90000B789C4618005346002B00D134E10028E6
:102BA00015D05346013B013399460D940B9C894443
:102BB0004A460B00A14601E0934203D05C78013302
:102BC000002CF9D14A465B1A0D9C0B920F9380237F
:102BD000DB0099460B9A13400D934B461A4204D0E2
:102BE0000F9B534501D953460F93022399460B9AE5
:102BF00013400B934B46134200D1F5E16346002B83
:102C000000D1D6E10D9B002B00D182E10B1BD146F8
:102C100031009A463B00A1442E005F464D462200FB
:102C20009B46894609E04B463900541CB047534641
:102C3000185D002800D192E122009542F3D14B4665
:102C40005A46A946BB46350017001E004C460B9B52
:102C5000002B00D0ADE1149B0D9387E61D290010D9
:102C6000F00D002044A0001088A00010D4A0001097
:102C7000419000000B9A283802430B924246524280
:102C8000787890460F000D93013196E678786C289D
:102C900000D15DE180230B9A5B001A430B92013156
:102CA000B3E680239B00ABE67878682800D148E142
:102CB00080230B9A01311A430B92A6E6672800D1B4
:102CC000B2E0472800D11AE1452800D11CE10B9A57
:102CD0000721049242460D9B0392073352468B43D1
:102CE000190002920CC92800009201930D91220054
:102CF00033005946FFF700FA040037E6462800D1B2
:102D00008DE00B9A0721049242460D9B03920733F4
:102D100052468B43190002920CC92800009201937D
:102D20000D91220033005946FFF718FC04001DE600
:102D3000631C98462200330059462520A847444684
:102D400014E60D9B04330F93631C99460B9B9A0763
:102D500000D40AE10D9B2200187859463300A84799
:102D600043464444012B00D86FE1B0462E002500B5
:102D70004C46B9465F4622004346013439002020C4
:102D8000B047AC42F7D12C00BB4635004F46464613
:102D90000F9B0D93EAE5D64B38789A460023984668
:102DA000002800D0D3E500246FE66F2842D000D879
:102DB000FDE11023782800D19BE00B9A9A430B92F7
:102DC0000A239C46002314930A330F9338E0574696
:102DD0000B9AB900C919490001330F181878303F10
:102DE000010030390929F4D9BA460B921F00591C49
:102DF000E7E50D9BB87804CB0237D143C9170A40E9
:102E000092460D93791CDCE5002800D1DFE6022311
:102E10005B42C8E621200B9A0243914676E62023C6
:102E20000B9A1A430B926CE780230B9A1B011A43EF
:102E30000B924CE708239C460023149308330F930E
:102E40000B9880230200DB001A4011000200184298
:102E500000D080E00C239A431000802302009B00E6
:102E60001A400B92184200D0F1E0802302005B0070
:102E70001A4091460D9A04321492184200D0C3E2CF
:102E8000430600D5D7E0030600D421E30D9B1B8841
:102E90000993002B00D02DE110339843002900D175
:102EA00028E10023994643460593534604930F9B1C
:102EB00006900393002302934B4601931CAB220020
:102EC0000093594633002800FEF7E6FF0400C2E6EF
:102ED000582809D0622800D0E3E202239C46002350
:102EE000149302330F93ABE720230B9A1A430B92F0
:102EF000103B9C460023149310330F93A0E78023CC
:102F00000B9A1B011A430B9220230B9A1A430B9224
:102F1000DDE60B1B9A460F9B99463B0037005E4649
:102F20009B4622003B003100A84753460134185D00
:102F30000028F6D14B460F935B46B3463E001F0078
:102F400085E6C0230B9AB8781A430B92F91C5CE50E
:102F5000C0239B00F6E70D239A4310007DE75B46F4
:102F60003500BB464E461F0071E64346012B66D92D
:102F7000631E434432002E001D003B00A2465F4604
:102F800091469B4622004B46013439002020B04731
:102F9000AC42F7D15B463500BB464E46A14654468F
:102FA0001F000D9B4A461878594633004444A847F1
:102FB000EEE60F9BA146984500D84CE64444E41A3F
:102FC000B0462E0025004C46B9465F4622004346D7
:102FD000013439002020B047AC42F7D12C00BB4669
:102FE00035004F46464636E60F98804500D873E2D6
:102FF0004346E218131A32002E001D003B00914692
:103000005F469B460F9122004B4601343900202039
:10301000B047AC42F7D15B46BB461F0043460F9911
:1030200001330F930B7835009C464E4660460028CE
:1030300000D0E7E50FE60D9B1B78099329E70D9B70
:103040002200187859463300A8474C46A0E60D9A4E
:10305000FA3BFF3B07329A430133994691444B4672
:103060000D931368526815921A4306D1103290439B
:1030700000220992002900D083E06122810600D558
:103080004122D2B20A9214AA91460A9A00210A3A1F
:103090000B9242461792524618925A46B2460991EE
:1030A0001E001F31149B4944BB4616941A950024F8
:1030B000674698468946159D19901B920AE0303262
:1030C000D2B24B4601341A55A8454CD0202C4CD0D6
:1030D00006000D003A0000233000290000F0F0FA4D
:1030E000D2B2092AEBD90B9B9C466244D2B2E8E7E4
:1030F000E91D00106123820600D54123DBB20A3BA3
:103100000B93434614A91F228C46159353466244E1
:10311000B2460D9417974C468046A9461700099D64
:103120000F9E169308E03033DBB201343B55B542B5
:103130000ED3202C0CD005003100280000F082FABC
:10314000CBB20929EFD90B9A94466344DBB2ECE782
:10315000159B40469846169B4D465646A1469A46B4
:103160000D9C179F9FE6B742B0D9179B56469846CD
:10317000189B5F469A461B9B09949B46169C199880
:103180001A9D43460593534604930F9B0690039361
:1031900000230293099B01931CAB22000093594624
:1031A00033002800FEF778FE0400FFF7DFFB102352
:1031B0000B9A9A430F92692800D091E10B998023D2
:1031C0000A00DB001A4010000A00194203D0112146
:1031D00018008A430F920F9A802311009B00194018
:1031E0008C461A425BD1802311005B00194089464E
:1031F0000D9904310B911A4200D0B2E013005B0626
:1032000000D4EDE00D9B1B781A00D90F0D91002B17
:1032100000D1A3E0100014AA944642461F23159241
:1032200052466344A846BA464D461494B14604003B
:103230001F00169201E0202D0FD020000A2100F07F
:1032400001FA01357E193031317020000A2100F079
:10325000F9F926000400092EEDD8159B4E46A94623
:1032600045469846169B57469A46149C0F9B0693D4
:1032700043460593534604930A2303930D9B0293FD
:103280004B4601931CAB22000093594633002800A3
:10329000FEF702FE0B9B04000D93FFF767FB07226E
:1032A0000D9B07339343013294469C4462460D9232
:1032B0000CCBD90F0B911100194300D19BE0D9170A
:1032C00013911291514010911399594011911098F6
:1032D0001199129A139B801A99411090119114AA76
:1032E0009446424600231592524699461692320061
:1032F0001F336344A8464E46BA4614941F00109CE0
:10330000119D914601E0202E10D0200029000A22B4
:10331000002300F0D5F9013630322B00BA550D00EC
:1033200022000400002BEED1092AECD8159B109442
:103330001195454698464B46169AB14657461E008B
:103340009246149C0F9B0693434605935346049361
:103350000A2303930B9B02934B461CE7002885D15D
:1033600059E70D9B1B68DA0F1100002B00D1A6E076
:10337000DA179818504014AA91461F2342464B442E
:10338000A8460D94169704006546B1461F00149197
:10339000159201E0202D0FD020000A2100F052F9F3
:1033A00001357E193031317020000A2100F04AF9D0
:1033B00026000400092EEDD8159BAC4645469846DC
:1033C000149B4E4619000D9C169F0F9B029106936D
:1033D00043460593534604930A230393634650E7F9
:1033E00013001B066ED50D9B00229B5ED9175A1841
:1033F0004A4092B209E7002399460028A2D1002250
:103400000023109211936AE70D9B1B689946002BCD
:1034100003D110339843002938D16123820600D5A7
:103420004123DBB20A3B0D9343461693534614A93E
:103430001F228C4617932B0062444D46B2461594CA
:1034400018978046170099460B9C0F9E08E0303372
:10345000DBB201343B55B5420ED3202C0CD0050015
:103460003100280000F0EEF8CBB20929EFD90D9A0F
:1034700094466344DBB2ECE7169B40469846179BA4
:1034800056464D469A460B94189F159C4346059305
:10349000534604930F9B06900393002302930B9BC8
:1034A0000BE50B9980230A00DB001A4010000A008C
:1034B000194200D08BE610239A430F928BE6002826
:1034C00083D158E70D9B1B68D9175A184A409CE6D0
:1034D0000D9B1B680993DCE4030001330F93A5E502
:1034E0000B926DE40EB4012230B584B007AC08CC69
:1034F000064D01000094280052420394FFF70EFA93
:1035000004B030BC08BC03B01847C046E11D001031
:103510000FB430B50C4985B008AA08CA0D680392EB
:10352000002D0CD000920122084C5242200002A92A
:10353000A847012005B030BC08BC04B018471800EB
:1035400001F0A2F80020F5E7F00D0020E9200010BE
:1035500010B5094A0300146884B0002C08D0012279
:1035600000910648524203A9A047012004B010BDB3
:1035700001F08AF80020F9E7F00D0020E9200010A2
:1035800001480421014B184710020020B1350010FA
:10359000142310B50100188804331B88984710BD08
:1035A000162310B50100188802331B88984710BDF8
:1035B000F8B54746CE4680B50F1E19D0142399465C
:1035C000043304000025012698464B4618884346DC
:1035D00021681B88984701C4431E98410135404229
:1035E0000640AF42F1D13000C0BCB946B046F8BD8C
:1035F0000126F8E7124A936F9B0815D29066D166B0
:10360000002905D0FFE7FFE7FFE7516F106F704714
:1036100004B580210906C2175140002800D0C843D4
:1036200006F0D6FB002104BDF0B5146E556E576F41
:10363000166FFFF7E3FF1466556657671667F0BD10
:10364000000000D0114A936F9B0813D21066516698
:10365000002905D0FFE7FFE7FFE7516F106F7047C4
:1036600004B5002801D00020C04306F0B1FB0021C2
:1036700004BDC046F0B5146E556E576F166FFFF758
:10368000E5FF1466556657671667F0BD000000D069
:1036900094464A4A926F9208624601D228E0C04698
:1036A000F0B5464E346E756E776F366F00F020F8C9
:1036B0009446424A14665566576716676246F0BDDF
:1036C00094463E4A926F9208624601D254E0C04648
:1036D000F0B53A4E346E756E776F366F00F04CF879
:1036E0009446364A14665566576716676246F0BDBB
:1036F000002B24DB11D000293EDA00B5C94340423B
:1037000000D1013100F038F8C943404200D1013105
:10371000DB43524200D1013300BD002AEBD1002827
:1037200001D1002905D00020C90FC90701D1C0432C
:10373000410800B506F044FB0022002300BD00B59F
:1037400000290ADBDB43524200D1013300F014F8B8
:10375000C943404200D1013100BDC943404200D1BC
:103760000131DB43524200D1013300F005F8DB4365
:10377000524200D1013300BD002923D1002B18D1C2
:10378000002A0CD0BC460D4F38667A660021002313
:10379000FFE7FFE7FFE77A6F386F6746704700285B
:1037A00001D00748010000B506F00AFB0022002303
:1037B00000BD02000B00002000217047000000D077
:1037C000FFFFFFFF002B00D0BFE0130C28D1002A21
:1037D000E7D080B4114F39667A66FFE7FFE730B46F
:1037E000040C7B6F396F1B0423433B667A66FFE74B
:1037F000FFE7FFE7C04684B27B6F3D6F1B042343A6
:103800003B667A66FFE7FFE7C04600232C042D0CD9
:103810007A6F386F00196941B0BC7047000000D062
:10382000F0B594460025140E01D112020835140F8C
:1038300001D112010435940F01D192000235D40F49
:1038400001D152000135D40B0134254F7C66254C43
:103850003C660E0C93B2FFE7FFE7FFE73C6F664361
:10386000360C7703BE467343DF0B5B04C01AB941C5
:10387000130C7343DB18C91ACE086643360CB644E2
:1038800093B273431F0F1B01C01AB941130C73434A
:103890001F0B1B05C01AB941860D8F023E436643BC
:1038A000360C092D24DB520A7243801A7703460A2C
:1038B0006643360C16235B1BDE40DF40BF196446AF
:1038C0006643821B7046043506330100D940A84088
:1038D000C01900D30131A24206D20023F0BD00007E
:1038E000000000D0FFFFFFFF121B0130F3D3F1E710
:1038F00009277F1BFE406446A2B27243801A00D2A1
:103900000139220C7243130C1204821A99410B00E4
:103910007046043513370100F940A840801900D3E0
:103920000131002B02D1A2420AD2F0BD013000D3F6
:103930000131121BFAD2013BF8D1A24200D2F0BDF4
:10394000013000D30131121BF7E7F0B51C0C00D099
:1039500080E00CB400251C0A04D11B02160E334370
:10396000120208351C0B04D11B01160F3343120140
:1039700004359C0B04D19B00960F33439200023513
:10398000DC0B02D192185B4101351C009718644191
:103990000134464F7C66464C3C660E0CFFE7FFE761
:1039A000FFE7C0463C6F6643360C7703BE4697B2CE
:1039B0007743C01B00D20139C01B00D201399FB22E
:1039C0007743C91BC91B170C77437E04FF0B801B71
:1039D000B941CE086643360C0C2D33DBB644120BCE
:1039E0001F053A431B0B97B27743C01B00D2013926
:1039F0009FB27743C91B170C77433E043F0C801BD3
:103A0000B941860D8F023E43664329277F1BFE4046
:103A10000C3D7746AF40BF1930BCA2B2ABB2724387
:103A20007343801A9941220C7243130C1204801ABA
:103A3000994102000B000137001BA941F9D2781E01
:103A40000021F0BD0C277F1BFE4077467F0BAF4067
:103A5000FF19E0E700245D1C07D0144F7D6639662E
:103A6000FFE7FFE7FFE7FFE73C6F95B29EB26543D4
:103A70006643401BB141150C1E0C6543664336047A
:103A80002F0C3E432D04401BB141994204D2020049
:103A90000B0020000021F0BD01D19042F7D3801A25
:103AA000994101349942F2D3F6E70000000000D0BA
:103AB000FFFFFFFF48404140484018B41B4B5B6884
:103AC000FC46019308BD04DFEF3D001018B4174B0E
:103AD0001B68FC46019308BD00DFF93D00109446C9
:103AE000134A926F920809D2624618B40F4BDB68F2
:103AF000FC46019308BD0CDFB14000100C4AF0B544
:103B0000146E556E576F166F6246FFF7EEFF084A48
:103B10001466556657671667F0BD18B4034B9B686B
:103B2000FC46019308BD08DF553F0010180A00202D
:103B3000000000D0FFB550404240504059404B403B
:103B4000594000E0FFB5154F4C00640D03D0BC4256
:103B500004D10C0314D80020090D09055C00640D84
:103B600003D0BC4204D11C030AD800221B0D1B0544
:103B700001264B4009D44B4003D58B4200D18242F1
:103B8000FFBD9942FCD19042FFBD0B43DB180343BC
:103B90001343F5D0C9434918FFBD0000FF070000DB
:103BA00000B5FFF7CFFF01D0002000BD012000BD10
:103BB00000B5FFF7C7FF804100BDC04600B5FFF765
:103BC000C1FF01D9002000BD012000BD00B5FFF7F5
:103BD000B1FF01D9002000BD012000BD00B5FFF7F5
:103BE000A9FF804100BD012040054A00121804D8F9
:103BF0005A00121801D80020704701207047002099
:103C0000704700000021002805D17047C1174840C7
:103C1000401AFAD0C90713B5064B1B6898470CBC6D
:103C2000441CA2401005120B0349091B0905194346
:103C3000114310BD9C0E00201F04000010B54C0065
:103C4000620D8023D218DB00D21A5B057E2A10DDBC
:103C50009E3A13DACC170903490819435242D1405E
:103C6000640001341532202A05DAD040084360434D
:103C700010BD002010BD0846604310BDC80FC0181D
:103C8000013810BD18B4044B5B6AFC46019308BDB3
:103C900024DF614200100000180A002018B4044B11
:103CA000DB6DFC46019308BD5CDF6D430010000036
:103CB000180A0020C94211D300B549004908002262
:103CC00000F018F8002904D4002240428A4111462D
:103CD00000BD80210906002000BD000018B4044B7F
:103CE000DB6EFC46019308BD6CDF6F4200100000E4
:103CF000180A002018B4044B9B6FFC46019308BDC2
:103D000078DF8B4200100000180A002018B4044B22
:103D1000DB6FFC46019308BD7CDFF9420010000018
:103D2000180A0020132370B51D78012D15D010DD61
:103D30001D48FFF735FC1D4C01008022200000F0DB
:103D400007FC022D2DD01A48FFF722FC194B1860F2
:103D500070BD194B154CA364F5E7174B134C23604A
:103D60006360A360E36023616361A361E361236235
:103D70006362A362E36223636363A363E363236415
:103D80006364A364E36423656365A365E3652366F5
:103D90006366A366E36623676367A367E367A36459
:103DA000D1E7054BA364CEE753440000180A002076
:103DB0004C3300009C0E0020BD3D001007B560464E
:103DC00001880A0A0230DF2AFAD1C9B2820804D374
:103DD000028840880004104300E00068014A505007
:103DE000039007BD180A00200FB403BC0CBCF0B54B
:103DF0000124E407634000E0F0B50C0DCF0F661E10
:103E00003605891B640503D3C943404200D3013101
:103E1000640D03D0661CF60A07D0E41B00207F0067
:103E2000791C89078912803C24031D0DDF0F6E1E4B
:103E300036059B1B6D0503D3DB43524200D3013390
:103E40006D0D03D06E1CF60A07D0ED1B00227F001B
:103E50007B1C9B079B12803D2D032F1B661B58D498
:103E6000A446202E46DA20371400BC401D00BD4079
:103E7000F24033412A4380185941CB0F05D0C94342
:103E8000C043002264425041514162464D0D28D149
:103E90000D0D07D100281FD0241940414941013A96
:103EA0000D0DF9D0640006D3013000D30131002C90
:103EB00001D140084000013A0BD4941CE40A04D11B
:103EC00012051144DB071944F0BDD907204B1943F3
:103ED00000E0D9070020F0BD0029DDD1002CDBD1A6
:103EE000F0BD0132C6074008CD0728434908002E1F
:103EF000E1D0D9E73C2E29DA203E40371400BC40FF
:103F000000D00124F24014431A00BB401C43D317D5
:103F1000ACE7AC46202F08DA20360400B4400D0090
:103F2000B540F84039412843A5E73C2F0CDA203F43
:103F300040360400B44000D00124F8400443080097
:103F4000B1400C43C117EAE710001900002494E7C0
:103F50000000F07FF0B50C0D661E3605891BE60AE1
:103F60006405640D02D0651CED0A04D00020012117
:103F70000905803C2403A4461C0D671E3F05DB1B7E
:103F8000E70A6405640D02D0651CED0A04D0002226
:103F900001231B05803C24037740644497B484B21A
:103FA00096B27443070C7E43150C6F4380B268438E
:103FB000361802D3012000043F183004350C0019D4
:103FC0007D41844688B29AB250430C0C62431F0C68
:103FD0007C438EB27E43921902D301263604A41983
:103FE0001604170C3618674101BC81B29AB25143CE
:103FF000040C62431B0C5C4380B25843121802D37A
:104000000120000424181004130C401863412D18DB
:104010005E410020474106BC88B293B258430C0C65
:104020006343120C544389B251435B1802D30121FC
:104030000904641819041A0C091862416D185641D4
:104040000020474118BCF902720D1143F0026A0DBD
:104050001043ED020A0D03D16D1940414941013B66
:10406000124E9B1B7600B3420ED26D0007D3013077
:10407000002671416646354301D1400840001B05CA
:10408000C918E4072144F0BD0BDA013306D1013031
:1040900004D101314F0D01D04908F2E7E1070020BA
:1040A000F0BD013631050020EBE70000FF03000002
:1040B000F0B51C0D671E3F05DB1BE70A6405640DA8
:1040C00002D0661CF60A04D0002201231B05803CA6
:1040D0002403D0252D060026F6432E661E096E66A3
:1040E000CE0FF619B44649004F0D02D07E1CF60AD9
:1040F00003D000200021403F3F033E1BB600B444E4
:10410000013F7F05C91B49082E6F013676089C02C6
:10411000950D25437543ED137543AD1301356D10B2
:10412000F603761B0CB4CC02450D2C43A2B2B3B2FD
:104130005A43270C7B43350C6F43A4B26C431B19C5
:1041400002D3012424043F191C041D0CA4187D4132
:1041500024196D41009A91B2ACB26143170C7C43B3
:104160002B0C5F4392B25A43A41802D301221204CB
:10417000BF182204230C52187B41019C6C431B196D
:10418000520ED9010A434401A01A81B2B2B251437E
:1041900003145A43360C734387B27743D617D219A8
:1041A00000277E4136049B191704160C7F185E41C8
:1041B0007316ED18F301002680337541A90F06D15F
:1041C0006400690AE8055B0A184309D22FE004225B
:1041D000944480337541A90AA8059B0A184326D345
:1041E000404149412404009A019B0D005543641B42
:1041F0004343E41A95B286B27543170C7E43030C11
:104200005F4392B25A43B61802D301221204BF1878
:104210003204330C52197B4152429C41002C02D48F
:104220000022013051414008CA071043490802B03A
:104230006246D7079210084BD218084B9A4203D215
:1042400012058918C919F0BD0020002A01DC3900C7
:10425000F0BD01331905F5E7FD030000FE0700007E
:10426000002200B5203200F010F8080000BD002246
:1042700000B500F00CF8CA179A4200D100BDD8432F
:104280000121C907414000BD00220B150AD410B519
:10429000944600F0A7F81414013400DA0021CB177B
:1042A000144C20470020002170476244343A0CD45B
:1042B0000C2A07DA04009140904052422032D44048
:1042C000214310BDD843D94310BD203207D40C463A
:1042D0009440524220321141D040204310BD08008A
:1042E000C917203203D452422032104110BD1800A9
:1042F000190010BDAB4200104A00520D144BD21AE7
:1043000013DDFF2A1EDAD205CB0FDB071A43C300E9
:10431000400F0903490A084310435B0001D301D051
:10432000013070474308FBD2704702D0C80FC00766
:1043300070470A0312130132F8D1420F072AF5D150
:10434000012200E0FF22C80F00028018C00570475C
:104350008003000000210A00002104E000210A007F
:10436000C11704E00022002306E0C0460022CB175C
:1043700058405940C01A994130B5184CA21A00292A
:1043800003D1010010D00020203A4C1512D104D2E4
:10439000013A001849414C0DFAD3114CA24204D203
:1043A00012058918DB07C91830BDD243520D002011
:1043B0000021F5E703D4013A00184941FBD50B323F
:1043C0004405C00A4D052843C90A640003D00024EF
:1043D00060416141E1E7E0D34408F8E732040000BE
:1043E000FE0700000A0DCC0F531E1B05C91A52050B
:1043F00003D3C943404200D30131520D03D0531CB3
:10440000DB0A07D0121B00206400611C8907891297
:10441000803A1203014BD21A70470000FF030000DC
:1044200051434343C9188C46110C83B24B4310B41B
:10443000040C614392B280B2504362431C041B0CD3
:10444000001910BC59411304120CC01851416144A9
:1044500070470000132310B512481C78FFF7A0F82E
:104460000100012C0AD003DD80220F4800F070F813
:104470000E48FFF78DF80E4B186010BD0A4C542201
:10448000200000F065F80B4B6365A365E3652366C8
:104490006366A366E36623676367A367E3672362D4
:1044A000E361E5E753460000180B00204C330000A1
:1044B0009C0E0020B944001007B5604601880A0A26
:1044C0000230DF2AFAD1C9B2820804D302884088B8
:1044D0000004104300E00068014A5050039007BDFB
:1044E000180B002010B5040001F09EFD002804D038
:1044F000034B04199C4200D810BD0248FDF752FC42
:1045000000000420AC9E001010B50C0002F06EF903
:10451000002804D0034B04199C4200D810BD024867
:10452000FDF740FC00000420AC9E001010B501F027
:1045300085FD10BD01480421014B184720020020D1
:10454000B1350010014B1B68184700002002002005
:10455000014B5B681847000020020020F0B5C646FA
:1045600000B5437D07000D001600002B38D0002A4F
:104570002EDD00216A1E90466A5C037D4C1C0020E3
:104580000A2A0CD0A64216D043461B5D21000D3BE3
:104590005A4253416A5CDBB24C1C0A2AF2D1002B0E
:1045A000F0D1884217DB022110483B689847A642A9
:1045B00007D02000E8E7864203DD311A3B6828185F
:1045C0009847AD19013D2B780D3B5A4253413B753D
:1045D00080BCB846F0BD091A3B6828189847E2E746
:1045E0000368110028009847F2E7C04660A2001057
:1045F000F0B5CE46474680B583B06B460600DD1D5C
:104600002870FCF737FD00231A4A12184B4180210D
:1046100009068B4202D30122174B52421749080068
:10462000884605F0DDFB164B81461C68002C14D033
:10463000144F02E02469002C0FD02368002BF9D01E
:104640003B68002B01D0A342F4D1200001222900B5
:10465000FFF784FF2469002CEFD14B46002B05D1D6
:10466000300003B0C0BCB946B046F0BD404605F0CE
:104670009FFBF5E740420F00FFFFFF7FD0080020BF
:10468000DC0D0020E40D0020F0B5DE4657464E4616
:104690004546E0B585B0070002F0B4F80600FCF727
:1046A000E9FC00232B4A12184B41802109068B425A
:1046B00002D30122284B5242284908008B4605F0BC
:1046C0008FFB274B01901C689A46002C3BD0254B52
:1046D000984602ABDD1D0A23994602E02469002CAE
:1046E00017D02368002BF9D043461B68002B01D05C
:1046F0009C42F3D1200032003900FFF72FFF4B46D8
:104700002000012229002B70FFF728FF2469002CCC
:10471000E7D1019B002B18D153461C68002C06D012
:104720006368002B0BD098472469002CF8D1300027
:1047300005B0F0BCBB46B246A946A046F0BD246910
:10474000002CEDD1F3E70028F1D0584605F030FBFE
:10475000E2E7C04640420F00FFFFFF7FD008002085
:10476000DC0D0020E40D0020002070470EB430B5B1
:1047700081239CB06A461FAC9B0020CC93820290A0
:10478000069002F03FF80B4B6A460A9300230E9303
:104790001393013BD382084B039007902A001868BB
:1047A00002A92300019400F00BF81CB030BC08BC37
:1047B00003B01847BD470010AC0700200020704729
:1047C000F0B557464E46DE464546E0B5874C0E00EE
:1047D000A54402AFBB63B865FA650C23CA5E8023AB
:1047E0009B011A4205D113438B81814A4B6E1340C2
:1047F0004B66602008231B18D81908220021FFF7F8
:10480000A1FE00239B46BB62BB647B657B64FB64AB
:10481000784B3B65784BFB63784BFB62E4233A6D46
:10482000D45801F021FF602108225218D2190092B9
:1048300004310300FA6DB86D7918A047002828DB11
:10484000FB6D02009C4684446346FB657B6E002B37
:1048500058D001282DD0252B33D00028DED0584445
:1048600004005846A0465C46F96D73680D1AAD1AEF
:10487000002B37DD32682B5D1178994242D1736885
:104880000132013B0134736032604445F0D1A346EC
:10489000C4E75B4B60207B6608231B18D8190822ED
:1048A0000021FFF74FFEFB6D0133FB657B6E002B94
:1048B00028D0FA6AD25C12076CD401220120252B81
:1048C000CDD1FB6D00241978002394469A46FB6DE8
:1048D0005D1C0B00253BDBB2552B13D8FA6B9B00FC
:1048E000D3589F463100B86D04F0B6FB0028C1D004
:1048F000FB6C002B01D101F01BFAB3895B0601D5DB
:1049000001F016FABB6C002B08D0BB6C1868FB6C6E
:10491000013314D0002801D0FFF708FEBD46F86C23
:10492000B9239B009D44F0BCBB46B246A946A046B5
:10493000F0BDFB6C002B02D0B3895B06E5D5BB6CE8
:10494000DB883B63BB6C18683B6B002B0ED005000B
:1049500000240026814698462B6801341868FFF72A
:10496000E5FD08CD1E60A045F6DC484601235B420C
:10497000FB640028D0D1D1E72307C3D1FB6DFD65CF
:104980005978A4E72307BDD102231C43FB6DFD65C5
:1049900059789CE7FA6A08245D46904673680BE0F4
:1049A000414632681378CB5C1C420DD073680132EB
:1049B000013B013573603260002BF1DC3100B86DD2
:1049C00004F04AFB0028EBD0AB4627E78F232342B5
:1049D00098D1534630229B005242534492465B008A
:1049E0005B189A44FB6DFD65597870E714FDFFFF75
:1049F000FFDFFFFF4006002064A2001055A6001054
:104A0000FDFF0000042398463D647368002B00DD21
:104A1000F3E03100B86D04F01FFB002800D067E719
:104A20003B6CFB65630601D401F0F9FA4346032BA6
:104A300000D113E1042B01D100F02CFC012B00D19B
:104A400022E3022B00D0CFE15346002B01D1013BE2
:104A50009A46102323409946E30701D400F080FED4
:104A60004B46002B01D001F07EF8BB6B04CB3A64BF
:104A7000BB63240601D401F0ADF9002A00D141E75F
:104A80008020FFF72FFD8046002801D101F045FA74
:104A90003B6C1860BB6CDA883A639C88A24201D3F5
:104AA00001F0C8F818683A6BB96C531CCB803B6CAA
:104AB00095002B5043463B6320237B633368C64DF0
:104AC0001B78EB5C1B0772D4534600243B6001F05B
:104AD000CBFDA04200D10BE7902149008C46C039A4
:104AE0008A46BA44D44461463368621C7A621A78B2
:104AF00001330A55726833607B6D013A3962726026
:104B0000032B01D001F0D4F8182360229B18DC1984
:104B1000BB6F042B04D0082200212000FFF712FDF8
:104B20007B6A4146FB6100943A6AB86D01F072FD00
:104B30007865431C00D1DBE6002801D001F014F9B0
:104B400042461060002004F0C5F8002801D001F0B2
:104B5000FDF97B6A9C46E34401235B429C463B682B
:104B600063443B604B46002B01D001F030F9043325
:104B70009C463B6CE044002B01D101F028F94346F0
:104B80003A6B00249B1A7A6B7B629B10934201D391
:104B900001F005FA7368002B01DC01F091F933682C
:104BA0001B78EB5C1B0702D43B68002B8FD14B4674
:104BB000002B00D032E643464A461A603B6C002B7D
:104BC00009D043463A6B991A8B107A6B01339A429B
:104BD00001D901F096F8FB6C0133FB641EE68023DB
:104BE0003D649B001C437D4BBB6210237B640D3BEB
:104BF00098467368002B00DC0BE73268764D13781B
:104C0000EB5C1B0701D401F018F9082399462B002F
:104C10005D46A3461C0006E0494601323260137827
:104C2000E35C194212D073680135013B7360002BBD
:104C3000F2DC3100B86D04F00FFA002800D057E61E
:104C4000494632681378E35C1942ECD13B6C5C4610
:104C5000FB654346AB46032B00D0EBE6D8231B0194
:104C60001C435346AE220021013B5200396493425B
:104C700005D95D3BFF3B3B645E23FF339A4600232F
:104C800099462133FF339C46C03B9846B844C44400
:104C900063467B62524B98465346E2461D0032689B
:104CA00011780B002B3BDBB24D2B00D980E1404645
:104CB0009B00C3589F46602220239B18D8192900C7
:104CC00001F0CEFD40231C433F3B9846F8657368D6
:104CD000002B00DDA6E6FB6D3B649AE63D64414B8C
:104CE000BB620A237B64073B98468EE6230700D00D
:104CF00008E6FB6D5978682901D100F095FE042380
:104D0000FD651C43E3E58F2319002140234200D0B9
:104D1000F8E5BB6C002B01D101F01FF880231C4388
:104D20002CE63D64FD65E30600D577E5BA6B08CA5D
:104D3000BA63220701D400F0C1FF5A461A703B6CD7
:104D4000FB656BE5230700D0DCE5FB6D597802239A
:104D50006C2901D100F069FE0123FD651C43B6E515
:104D600001233D641C43BAE788233D6439E71B4BAC
:104D70003D64B5E701233D641C43184BBB62082327
:104D80007B64053B984640E601231C43013398466B
:104D90003D643AE601233D641C4340231C433B6CC5
:104DA000FB650023984692E7534623439A4600D07A
:104DB000A8E5FB6D10245978FD6588E56246FD6520
:104DC0004BE5084BFD65BB6200237B6403339846CB
:104DD0007DE73D64D1E7C04655A60010B5860010BA
:104DE000BCA30010117F00105346D046002B01D108
:104DF00001339846102323401A003B64E30701D493
:104E000000F005FD002A01D000F0B6FEBB6B04CB1C
:104E10007A63BB63240601D400F0F0FF002A00D1BE
:104E200070E58020FFF75EFB8246002801D101F08B
:104E300074F87B6B1860BB6CDA883A639C88A2427A
:104E400001D300F0BDFE18683A6BB96C531CCB80DF
:104E500093007A6B1A5053467B6220233B63902366
:104E600060225B009B180025DC1935E018236022C6
:104E70009B18DD19082200212800FFF763FB00952D
:104E80004B4622005146B86D01F0C4FB7865431CC7
:104E900000D12DE5002839D101235B429C463B6CB3
:104EA000CB44E044002B10D1524613607B6B002BA7
:104EB00008D053467A6A9D1A3A6BAB10934201D3DD
:104EC00000F0E2FC04239C46E24473680025002BBA
:104ED00030DD4346002B36D001F0C6FBA84200D19E
:104EE00006E533686A1C91461A7801336255726888
:104EF00033607B6D013A7260032BB7D118236022B7
:104F00009B18DD19BB6F042BB4D1B8E77A6D931CE5
:104F10002ED0CB44032A02D12B68042B03D00123CB
:104F20005B429C46E0443B6C002BBFD0736800257D
:104F3000002BCEDC3100B86D04F08EF80028C8D00C
:104F4000002D00D0D4E47B6B002B08D053467A6A46
:104F5000991A3A6B8B109A4201D900F0DEFE3B6C35
:104F60005A425341FA6C94469C446346FB6455E4B0
:104F700073684D46002BAFDC3100B86D04F06CF85F
:104F80000028A6D0DCE77B6C0A2B11DDBD4B1C4052
:104F90005346197001239C46E2447368013B7360D9
:104FA000002B6ADD01323260013D002D00D076E633
:104FB0005246E30509D57B6A9A4201D900F060FDAB
:104FC00052467B6A9A4200D19CE410231A00224088
:104FD000234215D15346796A1A70B86D00227B6C52
:104FE000BD6AA847BA6B131D9846A30601D400F00A
:104FF00023FD13681860FB6C0133FB644346BB63FD
:1050000052467B6AD51A4D44AB44FFF707FC786CD7
:105010009D4B4000C35E7B649A4B1C40B8E7C023A5
:105020008020DB00234080008342C1D1974B234086
:10503000A024E4001C4310237B64A9E780232342BF
:10504000B6D09C43A4E7786C8F4B4000C35E7B6472
:10505000082B9BDCACE723059AD57B6C002B05D194
:1050600080239B001C43F93BFF3B7B64630501D419
:1050700000F0CDFC864B1C408AE73100B86D03F090
:10508000EBFF002890D093E75346002B01D1013B62
:105090009A46102323401A007B63E30700D4DEE224
:1050A000002A01D000F055FDBB6B04CB7A62BB63D4
:1050B000240601D400F09BFE002A00D122E48020C7
:1050C000FFF710FA051E01D100F027FF7B6A186078
:1050D000BB6CDA883A639C88A24201D300F098FD49
:1050E00018683A6BB96C531CCB8093007A6A3D62A6
:1050F0001A502023FB610024A946250001F0B4FAD0
:10510000A84201D1FFF7F4FB9021602033684900E9
:105110001A780918C91901334A55726833607B6DD2
:10512000013A6C1C7260032B00D183E01023984677
:1051300050339C46BC44E044082200214046FFF71F
:1051400001FA90224346602152003C6352180093BA
:1051500049462300B86DD21901F05CFA7865431C0A
:1051600001D1FFF7C5FB00286FD14A46002510602A
:10517000602018231B1808220021D819FFF7E2F934
:10518000E0233A6D6021D258C83B3A6460229B18F4
:10519000B86D2A00DB193D6C7918A8470025012855
:1051A00002D16023FB181D78202360229B18DB1995
:1051B0005B5D002B01D100F029FE7B6DA344032B26
:1051C0004BD001235B429C46E2447B6B002B0DD10C
:1051D00004339C467B6AE144002B07D04B463A6A75
:1051E0009C1AFA69A310934200D327E27368002542
:1051F000002B3CDD5346002B80D14D467B6B002BB2
:1052000001D0FFF70BFB2B607B6A002B00D1E2E49F
:105210003B6AFA69E91A8B1001339A4200D8DAE442
:105220007C6A04312068FFF76FF9002800D1D2E4CE
:105230002060D0E41023984650339C463B6FBC441A
:10524000E044042B00D077E77BE77B6D023309D085
:105250004B461D686B1C8BD1A6E743461B68042B8D
:10526000AFD1B2E77368002B00DD46E725003100BF
:10527000B86D03F0F1FE0028BCD02C1E4D46BDD009
:10528000FFF736FB7FF4FFFF30A60010FFFDFFFFA6
:105290007FFAFFFFB86D01F0EFF90368AE223B62C1
:1052A000F023DB00234399465346013B52009342CF
:1052B00000D847E35D3BFF3B3B615E23FF339A46EB
:1052C000002319003B647B61BB613B63FB612133BD
:1052D000FF339C46C03B9846B844C44463465C4692
:1052E000E046CB4689467B62D04B7B6332681178BF
:1052F0000B002B3BDBB24E2B03D8786B9B00C358C3
:105300009F465B469B056ED5386A03788B426AD10F
:105310004346FB605B46BB605346002580467B608E
:1053200006E043460132326011785B5D994219D143
:105330004346AB4601355B5DA2460134002B00D1EC
:10534000E8E27368013B7360002BEADC3100B86D62
:1053500003F082FE002805D1434632685B5D117878
:105360009942E5D0BB684946994653463B615B4646
:105370008846FD687B63AB46B2467C6B3D6ABE6D7A
:10538000295D5246300003F027FE013CF8D23B690C
:105390007A6B5D469B1A414656469B4627E05B4624
:1053A0001B0520D53B6C4B44002B1CD15A46A04B0F
:1053B0001A400023934699463B64434619700123E3
:1053C0005B429C460233E2449C46E04473680134ED
:1053D000013B7360002B00DC20E133680133336054
:1053E0005346002B82D149464546D946A3463B6BDE
:1053F000002B00D198E04A468E4B1A40914693E02C
:105400005B461B0503D53B6C4B44002BCED03B6C5D
:10541000012BE8D102233B64CFE780235A46134295
:10542000E1D09A439346C8E74B46072BDBD10823CC
:105430009946C2E798235A461B0113408022520026
:105440009342D0D13B6B012BCDD15A46794B1A40B8
:105450001300802212011A439346302342461370F0
:10546000313B9C460233E2449C460023E0443B63CC
:10547000A3E74B46062BB6D1072399469DE75B462B
:105480001B05B0D5A0225B46D2001340013AFF3A7B
:10549000934205D05B461342A5D03B6B002B3DD019
:1054A0005B469B0505D43B6BFA699B1ABB6143467F
:1054B0007B615A46604B1A401300C02252001A43C7
:1054C000002393463B6378E73B6C002B00D01AE245
:1054D0003B6B002B07D1E0235A46DB001A409A426F
:1054E00001D100F012FD4B46012B02D0042B00D05D
:1054F00079E74B460133DBB299465EE74B46002B1A
:1055000000D0F7E13B6B002B00D0A8E2E0235A4625
:10551000DB001A409A4201D100F0EFFC002349461B
:105520004546D946A3463B633B6C013B012B01D862
:1055300000F023FD0B00013B062B00D845E24B4653
:10554000DB0500D4B1E14B465B0501D500F039FD28
:1055500001236C1E5B4221785B44984665290BD081
:10556000452909D03200B86D03F036FD02235B42B5
:105570005B449846AC1E21783200B86D03F02CFDD8
:1055800010234A464946C3461A400B4201D0FFF752
:1055900045F92270BB69002B01D000F00EFC0022FF
:1055A000796AB86D02F0BCFABA6B0400131D984614
:1055B0004B460D00DB0700D446E213681C605D60BB
:1055C000FB6C0133FB644346BB63FFF727F95B4683
:1055D0001B0504D53B6C4B44002B00D1E6E64B4643
:1055E000022B00D0FFE603239946E6E65B461B0547
:1055F00000D447E7D6E65B46DB0500D4D2E680233D
:105600005A469A433B6B934601333B633B69002BFD
:1056100000D056E2013B9C46E244D7E63100B86D2B
:1056200003F01AFD002800D1DAE6DCE6F4A400104D
:105630007FFEFFFFFFFEFFFF7FF0FFFF386AD10014
:105640001500FEF761FF3862002801D100F065FC0B
:1056500081467A6A6B00A1441060FB61C6E57B6BF2
:10566000002B00D031E2BB6B04CB9146BB63240618
:1056700000D4B7E3002A01D1FFF744F92020FEF758
:1056800031FF041E00D153E34B46BA6C1860D18839
:1056900039639388994200D3A3E210683A6BB96CDE
:1056A000531CCB804B4695002B5020231800202202
:1056B000944640329046B844C44462461100336870
:1056C0003A641A788A5C002A01D1FFF71BF95A461E
:1056D000A046834655467A6313E04346D31A9A465A
:1056E00014005B452CD2013D002D00D12DE17368E3
:1056F000002B13DD3368396C1A788A5C002A00D1DC
:1057000023E17268013A72605A1C32601B78621C95
:1057100023704B46002BE0D11400E4E73100B86D54
:1057200003F09AFC0028E5D05B4618007B6B4546E9
:105730009B46444501D1FFF7DBF8631B98460FE118
:105740005B465B00404619009B46FEF7DDFE804647
:10575000002800D1ECE254464B4644441860C2E7AE
:105760004B46002B00D06CE3BB6B04CB9146BB6374
:10577000240600D4ECE2002A01D1FFF7C3F8202070
:10578000FEF7B0FE041E00D1D2E24B46BA6C1860A0
:10579000D18839639388994200D37BE110683A6BD2
:1057A000B96C531CCB804B4695002B5020233B6497
:1057B0003368D44D1A78AA5C120700D5D1E12100D4
:1057C0007C6354467268013A72605A1C32601B78DE
:1057D0004A1C0B704B469046002B07D013007A6B87
:1057E0009B1A9A463B6C9A4500D3D7E2013C002CA9
:1057F00000D1CCE07368002B00DCC1E008213368E5
:105800001A78AA5C114200D0C1E04146DAE73B6C4D
:10581000002B00D0B7E1BB6B20CBBB63240600D4C8
:1058200022E1002D01D1FFF76DF84046FEF75AFE48
:10583000041E00D17CE2BA6C2860D1883963938859
:10584000994200D341E210683A6BB96C531CCB808B
:1058500093001D500096210043460122B86D03F0CD
:105860001BFC041E01D1FFF764F8404506D221005D
:105870002868FEF749FE002800D02860FB6CA3448E
:105880000133FB64FEF7CAFF786AD100FEF73CFEE5
:105890007862002800D140E382463B6B7A6B5B0064
:1058A000AA4410603B63FFF70DFB10234A464946AC
:1058B0001A400B4201D0FEF7B1FFC0232A708022AC
:1058C000DB000B40D200934200D063E6FB693A6BE9
:1058D000934200D163E69A1A60218B4B5B18DB1967
:1058E0009D4202D3894B5B18DD1928008849FDF7DA
:1058F000F9FD54E6FD22033B134200D073E5043367
:10590000DBB2994659E53B6C022B00D0EBE5032353
:105910003B6452E5FB6854469846BB6840469B464C
:105920005A467B68396A9A467A4B1A4093462A004F
:1059300003F0E8F901235B429C463B6B8046E2445E
:10594000FB6143E500233B61BAE45B464546180032
:105950007B6B9B46631B9846AC4201D1FEF7D2FF9E
:10596000002323704B46002B04D04346591C884229
:1059700000D994E2FB6C0133FB64C344FEF74EFF95
:105980003100B86D03F068FB002800D136E74346CC
:1059900044467A6B9B1A591C9B44002323704B4648
:1059A000002B01D1FFF717F93B6C8B4201D8FFF7B1
:1059B00012F94B461868FEF7A7FD002801D1FFF742
:1059C0000AF94B461860FFF706F9022900D809E3E7
:1059D0002C00032900D1B2E533000E009846013CAB
:1059E00042462178B86D03F0F7FAA3195B1BDBB2CE
:1059F000032BF4D1434631001E000B00043BDBB205
:105A0000DA43AD185A46013AD31A9B4697E5424B02
:105A10001C403B6C002B02D0013B3B640135012351
:105A20009C46E144FFF7B9FA08231C43FB6D9978C3
:105A30000233FB65FEF74BFF230700D40BE1BB6B82
:105A40001B681870FFF7D7FABB6B1B689A464B466A
:105A50009B0700D417E153461C605D60B0E54946E2
:105A60004546D946A346C6E400964346012229008E
:105A7000B86D03F011FB041E00D0FFE6FEF738FFFF
:105A80005546013D32002978B86D03F0A5FAAA46C3
:105A9000FFF796FA214A934201D9FEF753FF0822F5
:105AA0009046984443469900BB6C1868FEF72CFD5D
:105AB000BB6C002801D1FEF743FF424618609A8074
:105AC0006DE63B69013B3B6180E420239C4640330B
:105AD0009946B944CC446346190032683B64137854
