:020000041000EA
:1000000000B5324B212058609868022188439860DF
:10001000D860186158612E4B002199600221596106
:100020000121F02299502B49196001219960352056
:1000300000F044F80222904214D00621196600F024
:1000400034F8196E01211966002018661A6600F04E
:100050002CF8196E196E196E052000F02FF8012189
:100060000842F9D1002199601B49196000215960AB
:100070001A491B48016001219960EB211966A021F2
:10008000196600F012F800219960164914480160C1
:100090000121996001BC002800D000471248134993
:1000A000086003C880F30888084703B5996A0420EC
:1000B0000142FBD001200142F8D103BD02B5186610
:1000C0001866FFF7F2FF186E186E02BD00000240BE
:1000D000000000180000070000035F00212200005C
:1000E000F4000018222000A00001001008ED00E03C
:1000F00000000000000000000000000074B24E7A12
:1001000000200420F7010010C3010010C5010010F9
:10011000C1010010C1010010C1010010C101001097
:10012000C1010010C1010010C1010010C701001081
:10013000C1010010C1010010C9010010CB01001065
:10014000CD010010CD010010CD010010CD01001037
:10015000CD010010CD010010CD010010CD01001027
:10016000CD010010CD010010CD010010CD01001017
:10017000CD010010CD010010CD010010CD01001007
:10018000CD010010CD010010CD010010CD010010F7
:10019000CD010010CD010010CD010010CD010010E7
:1001A000CD010010CD010010CD010010CD010010D7
:1001B000CD010010CD010010CD010010CD010010C7
:1001C00000BE00BE00BE00BE00BE00BEEFF3058054
:1001D000103800BEF2EB8871785400109C54001067
:1001E0003402001090A31AE700201F49086006C8D7
:1001F00081F3088810471D48006800282FD10DA4FE
:100200000ECC002902D000F012F8F9E71849194A7B
:10021000002000E001C19142FCD1174988471749ED
:1002200088471749884700BEFDE701C901C29A42C5
:10023000FBD370479C540010C0000020180F002012
:10024000F46200100000042000000420F46200109A
:10025000001004200010042000000000704709482E
:1002600002F05CF80047000008ED00E0000000D05C
:10027000180F0020141A002095210010BD04001052
:10028000892200105756000006005250ABB360534D
:10029000A051001006005250861C0302B0510010FD
:1002A000060052505422A29DC45100100500525025
:1002B000DE65F468F4620010F8B5C04606480749E8
:1002C000091A8B10C90FC91810B5491003D0044B77
:1002D000002B00D0984710BD180F0020180F0020E9
:1002E00000000000054B10B5002B03D00449054861
:1002F00000E000BFFFF7E2FF10BDC04600000000B5
:10030000981900201051001030B585B000256A46BC
:100310006B230F4C9381682103AA20000095693B51
:1003200004F0B6FD6A461C2368219381200003AACD
:1003300000951A3B04F0ACFD6A46064B6821938198
:1003400020000223009503AA04F0A2FD05B030BDF1
:10035000F00E00201B18000010B50A490A4804F0EE
:100360006FFD0321042000F023FA0321052000F093
:100370001FFA192000F034FAD02380221B069204C1
:100380005A6210BD801A0600F00E0020FA22024BBD
:1003900092001A607047C046080E0020FA22014BF6
:1003A0001A607047080E0020014B024A1A6070471D
:1003B000080E0020C4090000FA22024B92001A60C5
:1003C0007047C046080E002070B586B001F05CF999
:1003D00000290BD0FA220023920002F00FF8314AD4
:1003E0001368C01A09280AD806B070BDFA2189001E
:1003F00001F0C6FF2B4A1368C01A0928F4D90A3342
:10040000136004F0B3FC040003F09AFA002801D052
:10041000002C43D1002004F0D7F80028E4D01322A8
:100420003B230026204C6A4413703A3B009368211A
:10043000200004F02DFD05AA042368212000009669
:1004400004F08EFD6B46988ADD8AC0BA02F014FA79
:10045000164A174B02F0FFF902F026FA154902F08E
:1004600032FD02F037FDEDBA44B228000296019643
:1004700002F002FA0D4A0E4B02F0EDF902F014FA06
:100480000D4902F020FD02F025FD40B2009023004E
:1004900000220121002004F041F9A5E703F058FAF9
:1004A000A2E7C046E8190020F00E0020D5CC5A0A79
:1004B00048FB0F3F000020C10000204170B504F050
:1004C00033FC04F0E5FA0A2000F0F2FFFFF744FFE6
:1004D000642000F0EDFFFFF717FF642000F0E8FF55
:1004E000144C154D154E14E0FA220023920001F031
:1004F00085FF2B682268C01A904208D39B18307879
:100500002B6004F029FC0122337853403370FFF74D
:100510005BFF01200021404203F0AAFA2368002B70
:10052000F5D001F0B1F80029DED1FA21890001F0FF
:1005300027FFDEE7080E0020E4190020101A002033
:1005400070B50C7888B00134E4B2032C01D908B03E
:1005500070BD04F00BFC0600002004F035F8051E09
:10056000F5D0022C10D0032C2DD0012C41D0002E20
:1005700017D1514C2378002B10D0002300220021EA
:10058000002004F087F809E005AA002E00D082E0E0
:100590004A4C16802378002B00D087E0002323707C
:1005A000D5E705AC06220021200002F027FD042338
:1005B0000022237000212300002004F06BF80122A8
:1005C0003D4B1A70C3E70B22002105A802F016FD6F
:1005D000002E4DD13A4C2378002B02D100252570F6
:1005E000B5E70B230321002005AA04F009F8002534
:1005F000F5E713223B2333486A4400261370009426
:10060000040068213A3B04F043FC05AA0423682156
:100610002000009604F0A4FC6B46988ADD8AC0BADC
:1006200002F02AF9284A294B02F015F902F03CF9A8
:10063000274902F048FC02F04DFCEDBA44B2280014
:100640000296019602F018F91F4A204B02F003F9B6
:1006500002F02AF91F4902F036FC02F03BFC40B2DE
:100660000090230000220121002004F057F86EE7DB
:1006700001226B469A761B236B441A7000220321D9
:100680005A709A70DA7000200B2305AA03F0B8FFA5
:100690000B4C25705BE7EA23022113800020E83B26
:1006A00003F0AEFF0122054B1A7050E7022302212E
:1006B000002003F0A5FF71E70E1A00200C1A00209D
:1006C0000D1A0020F00E0020D5CC5A0A48FB0F3F2F
:1006D000000020C1000020410020704710B502A892
:1006E0000088022A00D010BD0029FCD10028FAD0D1
:1006F0001B781A4205D0074B0120196004F02CFB2F
:10070000F1E7002004F028FBFA22024B92001A6065
:10071000E9E7C046080E0020004870475453001017
:100720000048704764520010004870474052001063
:1007300070B5041E23D003282CD029D8184BA40050
:10074000E558280004F054FCC0B2041C1F2814D83B
:10075000C026E4B2631CDBB25B00B6001E43002877
:1007600008D000230F4AE95C01331180D9B202326C
:100770008C42F8D80C48068070BD1F24E8E7C126DB
:10078000074B02220748196802F03EFCB600F1E769
:100790000020F1E71121054802F048FECEE7C046EF
:1007A0000C0E00205A12002058120020C8190020F8
:1007B000094A10B594464024830063441A68C00077
:1007C0006240803414408022520113431C60034B6A
:1007D0009C466044416010BD04C00140004001409F
:1007E0000123D0228340120693629361094A40217B
:1007F0009446830063441A68C0004A408031114027
:100800008022520113431960034B9C460523604428
:100810004360704704C0014000400140024B18682B
:100820008007C00F7047C04600C0064070B5EFF3A8
:10083000108C72B60D4D2B68002BFCD0BFF35F8F70
:100840000724CB08C618C05C01230C40A3401C0041
:100850000440034207D118433070BFF35F8F2C6010
:100860008CF3108870BD100001F012FD2C0100D037
:10087000F8B54746CE46884680B5EFF3108C72B681
:10088000214D2C68002CFCD0BFF35F8F9A422CD8EE
:10089000D4080727055D061901241740BC402C42E7
:1008A0001FD007210127894609E0D408055D0619F4
:1008B0004C4639001440A1400C00294211D00132AD
:1008C0009342F2D201204042BFF35F8F00220E4BD1
:1008D0001A608CF3108800280FDBC0BCB946B04604
:1008E000F8BD254310003570EEE7BFF35F8F00239E
:1008F0002B608CF31088012040424346002BECD043
:10090000089801F0C5FCC0462C0100D00021044B22
:10091000044ABFF35F8F02C39342FAD17047C046C7
:10092000000100D0800100D0044A1078431CDBB2E3
:10093000172B00D9102313707047C0461C0E0020DF
:1009400010B5064B064C82B00100009318221F23FD
:100950002000FFF78DFF02B010BDC04628510010E7
:100960004015002001238340002904D0034A13606E
:10097000034A13607047034A1360FBE780E200E01C
:1009800000E100E080E100E0024B10309B68800055
:10099000C058704700ED00E070B50D00EFF3108611
:1009A00072B60F4A1368002BFCD0BFF35F8F0D4B5C
:1009B00010309B6884001B590B4A934203D09D4220
:1009C00001D001F07DFC074B9B681D51BFF35F8F89
:1009D000BFF35F8F0022024B1A6086F3108870BD50
:1009E000240100D000ED00E0CD010010F0B5574625
:1009F0004E46DE464546E0B585B00600009117003C
:100A0000EFF3108B72B66A4A1368002BFCD0BFF369
:100A10005F8F0025674B5D579A46002D00DAA9E0ED
:100A20006B00654C01935B199B009846A146C1443D
:100A30004B4652469B7910361370604BB6009B684C
:100A400099590B1B2F2B33D95D4B994200D0ACE049
:100A5000019B42469C465B4B6544AD0063535A4B39
:100A60000232A218043B9B1A1B05584A5B0D6519FC
:100A700013436B80564B0121AB80FF23AB71009B6E
:100A8000EF71AB604B460B4319004C4B9B6899517F
:100A9000BFF35F8FBFF35F8F0022454B1A608BF36C
:100AA000108805B0F0BCBB46B246A946A046F0BDD2
:100AB00001200A008243D3798C46BB4231D8454697
:100AC000130044491B1B5B415943090D3D4B6353C4
:100AD0003D4B02356519043B5B1B1B053B4D5B0D14
:100AE0002B43AA464D466B800425AC465546E04450
:100AF000131F44441B1B1B055B0D1D434B46997183
:100B000000999D8099604946DF71334B0143136022
:100B1000BBE75800C01880002018C179B9422FD90E
:100B200002000623D356002BF3DA02932B4B6146C7
:100B30000393131D9A4604235B429C46E1445046AE
:100B40004B461B1A1B055B0D9C46204B9571984626
:100B50006346404603439380019B5A199200039BCE
:100B6000A418A380029B1C4AA371009B2260E7711A
:100B7000A3608AE701F0A4FB002553465D574FE7C9
:100B8000908802934005131D9A46031561469C46C2
:100B90004046D444634604302018181AE023000568
:100BA000400D1B0218430390C5E701F089FB4FE796
:100BB000240100D00F1A0020200E002000ED00E0DC
:100BC000CD01001000A1FFFF500E002000E0FFFF4C
:100BD00001BDFFFFAAAA00000148804701BD000037
:100BE000F0B5DE4657464E464546E0B50C0083B0AC
:100BF000EFF3108872B65D4A1368002BFCD0BFF388
:100C00005F8F5B4B5B499A68030010339F00D55997
:100C10008D4239D0A5424AD0574EAA1B2F2A33D82D
:100C200001229246824091464846544A126810403A
:100C300001904846524A1060BFF35F8FEFF3058280
:100C40009346002A35D0934201D001F039FB2A00A7
:100C500053469A439068844208D175E04B005B1874
:100C60009B00F3189868A04234D01A000621515610
:100C70000029F3DA844253D0019B002B26D04A4648
:100C8000404B1A603D4B1A60394B9B68DD51BFF3F6
:100C90005F8FBFF35F8F0022344B1A6088F3108898
:100CA00003B0F0BCBB46B246A946A046F0BD0D005D
:100CB000EAE72A0053469A4390688442D6D1062038
:100CC00010561300002809DA0D0031E04A462C4B7B
:100CD0001A60D9E706201856002822DB42001118B6
:100CE000890074188A46A1689960E179D971062152
:100CF00061569971002925DBA488F11A6405241531
:100D000054440919E0240905490D2402214399801E
:100D100013181D4A9B001178F31899711070ABE7F6
:100D200013005946002914D1FF3191711749918060
:100D300015490A789A71164A9B1B5B415A43120D5A
:100D40000A7099E71349E2E70620105613000028BD
:100D5000C4DA114A1149D21A083A5002400D01432F
:100D600099800F4952080A43DA8085E7240100D0B0
:100D700000ED00E0CD010010200E002000E100E0B9
:100D800080E100E080E200E00F1A002001BDFFFFDB
:100D9000AAAA000001BD00005A0E002000F0FFFFCB
:100DA00000F8FFFF70B5EFF3058101240443EFF372
:100DB000108C72B6214A1368002BFCD0BFF35F8FF2
:100DC0001F4B05001F4AED1A6D416A43120D1E4D5F
:100DD0008900AE6852B27658A6421CD006215956F8
:100DE00091421CD012215956914222D01E215956AF
:100DF000914220D02A2159560324914210D0134BFE
:100E000019781A708171BFF35F8F00220B4B1A6043
:100E10008CF3108870BDAB680D4C5C50EFE700247C
:100E20006100091989005B18FF21997109499980AE
:100E3000E5E70124F4E70224F2E7C046240100D0EC
:100E4000200E0020AAAA000000ED00E00F1A0020EA
:100E5000CD01001001BDFFFF054B064A1360064A95
:100E6000136053609360D360136153619361704763
:100E70008080808000E400E004E400E0024B9C46B7
:100E800061448900016070474000003410B50400DF
:100E9000FFF74AFD01002000FFF7F0FFFF23237159
:100EA000BFF35F8F10BDC04610B50400FFF73CFDD7
:100EB00001002000FFF7E2FFFF23A380BFF35F8F55
:100EC00010BDC04610B504000120FFF739FD034BEB
:100ED000C3189B002360BFF35F8F10BD4000003438
:100EE00083680B4810B584466144624412010901CD
:100EF00059189B185C684A680120944201D802D0B6
:100F00000020C0B210BD1A680B689A42F9D8F7E702
:100F1000FFFFFF0F0A4B1968EFF3108072B60A68E3
:100F2000002AFCD0BFF35F8F1B68BFF35F8F0022E6
:100F30001A6080F3108840BF002000217047C0462F
:100F4000E0190020F8B5574645464E46DE46E0B566
:100F500098460CAB1C780DAB1B78070091469A465F
:100F60000568002C59D1AC7B002C3BD06600296869
:100F70003619033E89194B78AB73002B00D1EB7304
:100F800000238B704B700B702D4BE218BB68120165
:100F90009B184A461A6042465A600A9A9A600B9A0F
:100FA000DA6000238B704B700B706B7B9B46002BC1
:100FB00026D022006B685946A86898475B465B00BC
:100FC0005B442A68033B002812D058469619B0703B
:100FD000D118D35C002B00D073705B460C706B7320
:100FE0005C450ED0F0BCBB46B246A946A046F8BD53
:100FF000D3189C709119925D002A1CD15B460B702E
:101000006C734A464346387D00F0D2FB051E0AD178
:101010000E9B002BE6D01D70E4E7660029683619A8
:10102000033E8919B0E75346002BF1D121003868FF
:1010300000F0D6FDECE75A705B460B706C73E0E78E
:10104000FFFFFF0FF0B5DE4657464E4645460023EC
:10105000E0B58BB00893684B8200D45800239B46C0
:10106000099000F011FB02000B006068EFF3108A9A
:1010700072B6564601680029FCD0B246BFF35F8FB6
:1010800021684F7B8C46002F2ED0A5685B49A9466E
:1010900079180901894449460868496805000E0025
:1010A000AD1A9E41002E5FDD02000B00099800F092
:1010B0007FFB00230022994600230692079300231A
:1010C00098466368BFF35F8F5A461A608AF31088A8
:1010D0004346002B12D10028C3D10BB0F0BCBB4655
:1010E000B246A946A046F0BD00230022994600233F
:1010F00006920793002300209846E2E7089B4946A2
:1011000018023843C047626805000E00EFF3108AEA
:1011100072B61368002BFCD0BFF35F8F002E41DB4B
:101120002B00334302D02369002B56D12368D97B8F
:10113000002905D01A68480041185218033A577020
:101140009A7B002A00D19F73DF73E268013FD35D71
:101150000133D3555B4623616368BFF35F8F5A4603
:101160001A608AF310887CE7002E02D1002D00D08F
:101170009AE70021604600F0B1FC4B461A685B68B4
:10118000069207934B469B6898464B46DB68994608
:10119000E368DB19013B1B7808931B0203432361BF
:1011A00000208EE72369002BC0D0069A079B802180
:1011B000521BB34109068B4202D30122104B52420B
:1011C00000210491013103914946019141462000DB
:1011D00002970091FFF7B6FEBCE700F055FA2A002F
:1011E000330012184B41802109068B42E8D30122BB
:1011F000034B5242E4E7C046B0190020FFFFFF0F47
:10120000FFFFFF7F10B5144C6368002B04D00A2148
:101210001248FFF733FE10BD2300114A1021206849
:1012200000F078FB032000F023FA032000F028FBF5
:1012300003200C4900F076FAFFF776FB0A4B9C4638
:1012400003232375D0231B061B6860446375074B7B
:1012500080006060DC60DAE7680E0020E0190020A2
:10126000E10E00104510001040000034B0190020BD
:10127000F0B557464E464546DE46E0B585B001938B
:1012800010AB1B780600039300239A469846009201
:101290007268EFF3108B72B61368002BFCD0BFF3AB
:1012A0005F8F3568AC7B002C00D16EE067002B6847
:1012B0003F19033FDB195A78AA73002A00D1EA7359
:1012C000484AA118B26809015218009801991060A3
:1012D00051600E9991600F99D16042469A705A7090
:1012E0001A706B7B9946002B00D16BE022006B6873
:1012F0004946A86898474B465B004B442A68033B25
:10130000002856D04846D719B870D118D35C002BA6
:1013100000D07B704B460C706B734C4553D0F36818
:101320001B19013B18787368BFF35F8F42461A6040
:101330008BF310885346002B08D10002204305B0E0
:10134000F0BCBB46B246A946A046F0BD039B002BAD
:1013500046D00E9B00200F99984703000B433FD0C7
:1013600004000D1E1ADA009A019B121BAB41009279
:10137000019380221206934204D301231A4C5B424C
:1013800000930194039B9A4682E77368BFF35F8FD3
:101390001C608BF3108801204042D0E700F074F904
:1013A0008022001969411206009001919142E9D30F
:1013B000E3E7D3189C70D119D25D002A00D05A708F
:1013C0004B460B706C73307D009A019B00F0F0F976
:1013D00082460028A3D02100306800F001FC9EE77F
:1013E0000020ACE7FFFFFF0FFFFFFF7FF0B5040019
:1013F0000D0006267642F717C64636196F4100B52E
:1014000084B08F4214D811D000F03EF932003B0076
:10141000121A8B41002B15DC002B3ED02000290036
:1014200000F070F904B080BCB846F0BD8642EBD93C
:101430000026002700F028F932003B00121A8B41E9
:10144000002BE9DD002302930193154B320000933A
:1014500014483B00FFF70CFF0028DFDB0023984611
:10146000BC46114A114F7B6A9C4504D8B96A8E422A
:10147000D4D99C45D2D11168EFF3108072B60B68B5
:10148000002BFCD0BFF35F8F1368BFF35F8F414623
:10149000196080F3108820BFE5E7002ABED0D1E7AD
:1014A000150F0010680E0020E019002000400540D4
:1014B00070B5060000F0E8F8FA2204000D000023E1
:1014C00030000021920001F0C7FC8023001969411F
:1014D0001B06994202D3012002494042FFF786FFD2
:1014E00070BDC046FFFFFF7FF0B5EFF30583CE462A
:1014F000474680B505000C0085B0002B12D02A4A63
:101500000020536AA34203D3926A0130AA4204D353
:1015100005B0C0BCB946B046F0BD1B1B5A1E934176
:10152000D8B2F5E7214E02930193214B02000093BC
:1015300030000B00FFF79CFE031EE0DD20BF71684A
:10154000EFF3108772B60A68002AFCD0BFF35F8FF2
:10155000DAB29446FF2230681A40417B61450FD0D1
:101560000168894651008846494690444144033900
:101570008978002904D13269934209D1316107E0A9
:10158000F1681B0A8A18013A1278DBB29A4207D036
:101590007368BFF35F8F00221A6087F31088AEE78D
:1015A000614600F01DFBF3E700400540680E002097
:1015B000150F0010F0B5EFF30582D6464F464646AC
:1015C0001000C0B51038EFF3108872B6214C2368B4
:1015D000002BFCD0BFF35F8F0123190081401E4D0B
:1015E0001F006963AA461D4D29601D4D2E78AC462B
:1015F0003500C5402F402B4215D053465F6A194B2A
:101600008500EB589F4218D36246174B8E43EB5828
:101610001670BFF35F8F0022226088F31088002BC2
:1016200006D0984704E0BFF35F8F276088F31088E7
:10163000E0BCBA46B146A846F0BD0C4B92009C46B1
:10164000624413681360BFF35F8F0023236088F345
:101650001088EDE7280100D0004005403C700540AF
:10166000111A0020EC19002028140020D03F05405A
:1016700010B5034B01001800024AFFF7D7F810BD60
:101680000B1A002044510010034B596A0A00986A53
:10169000596A8A42FAD170470040054070B504008B
:1016A0000D00174A536A1900966A536A8B42FAD1A1
:1016B0003000190024184D41AB4216D813D0104BFE
:1016C0002A005B6A9D4203D90D494B6A9342FCD3C1
:1016D000934207D10A4A02E0516A994202D1916AC3
:1016E000A142F9D370BDA642E9D9054B5B6A1C0043
:1016F0005A1CEFD0012201246442E5175242E3E76D
:1017000000400540064A536A9942FCD807D1044B71
:1017100002E05A6A914202D19A6A8242F9D3704732
:101720000040054070B504000D00EFF3108672B65E
:101730001A4A1368002BFCD0BFF35F8F002D1BD01B
:101740002000FFF721F9164981420AD02000FFF757
:1017500023F901212000FFF705F90123A340114AD5
:101760001360114BA400E550BFF35F8F00220B4BB9
:101770001A6086F3108870BD0121A1400A4BA200B7
:10178000D5500A4B20001A788A4305491A70FFF792
:1017900027FA00212000FFF7E5F8E5E7280100D04F
:1017A000B51500103860054028140020111A0020DB
:1017B000F0B54F46D6464646C0B507002B4C616A89
:1017C0000D00A66A616AA942FAD18B4208D805D0F9
:1017D0000120E0BCBA46B146A846F0BDB242F7D9F6
:1017E000EFF3108A72B6224801680029FCD0BFF3DB
:1017F0005F8F0125BD401F491C4C884609788946EA
:101800002943C9B28C46414660460870391D89009B
:1018100065630A511849B8004350216A00202942E3
:1018200019D0616A0800A66A616A8142FAD18B42C6
:1018300019D801D1B24216D8CC450BD00B4B1F2280
:101840001D625D6301233A4093400C4A1360434696
:101850004A461A700120BFF35F8F0022044B1A60C2
:101860008AF31088B5E70020F5E7C0460040054040
:10187000280100D0111A0020EC19002080E200E0BD
:10188000EFF3108C72B60A490B68002BFCD0BFF343
:101890005F8F01238340074A0748136202789A4307
:1018A0000270BFF35F8F00230B608CF310887047CA
:1018B000280100D000400540111A002070B5060034
:1018C0000D00140000291DD0002A12D07368806812
:1018D000984762006B0012195B193168033A033BA9
:1018E000002808D08A189570C818CB5C002B0BD143
:1018F0000470280070BDCB189C7088188A5C002A80
:1019000005D105702000F5E753700470F1E75A70B7
:101910000570F7E710B583600023CCB24373013341
:10192000426004738373C4730068421C012C05D9A0
:101930000133DBB2137003329C42F9D1FF230B4019
:101940005A00D318C01800230338437010BDC04696
:1019500070B505000C1E07D0630001681B19033B1E
:10196000CB185A78002A01D1200070BD5000801891
:101970000338091800204E7848702100587028005C
:10198000FFF79CFF310004002800FFF7E1FF06008D
:10199000002C20D00028E7D0320021006B68A86816
:1019A00098477200630092191B192968033A033B98
:1019B000002808D08A189470C818CB5C002B00D07F
:1019C00053700670D0E7CB189E7088188A5C002A86
:1019D00000D05A7004703400C6E7C046F0B55746D0
:1019E0004546DE464E46E0B50D006F0001687F19A2
:1019F000033F0400C85D83B00192CA19002850D08B
:101A000043001B18033BCB185E78B446002E1AD156
:101A1000019E002E42D0E67B002E04D073009B195D
:101A2000CB18033B5D70A37B002B00D1A573E5733E
:101A300000282FD10023537003B0F0BCBB46B24640
:101A4000A946A046F0BD72006244033A8A18517854
:101A500088460021517089465970320001002000EB
:101A6000FFF72CFF43468246002B07D05B0021681E
:101A70004344033BCB185A78002A16D142465146BC
:101A80002000FFF71BFF2168019BCA19002BC2D160
:101A90000028CFD043001B18033BCB1800219970BE
:101AA000C8E7019B002BB6D1C4E75000801803386B
:101AB00009184878834648464870587041462000C7
:101AC000FFF7FCFE594680462000FFF741FF4146E4
:101AD00002002000FFF7F2FE8046CFE7F0B5574640
:101AE0004546DE464E46E0B583B00191457B040095
:101AF0006F0000687F19033FC15DC219002952D0F1
:101B00004B005B18033BC3185E78B446002E1CD113
:101B1000019E002E44D0E67B002E04D073009B195A
:101B2000C318033B5D70A37B002B00D1A573E57345
:101B3000002931D1002328005370617303B0F0BC39
:101B4000BB46B246A946A046F0BD72006244033AC5
:101B500082185078804600205070814658703200BC
:101B60002000FFF7ABFE43468246002B07D05B0008
:101B700021684344033BCB185A78002A17D14246C8
:101B800051462000FFF79AFE019B01002068C21910
:101B9000002BC0D10029CDD04B005B18033BC318EC
:101BA00000209870C6E7019B002BB4D1C2E750001B
:101BB000801803380918487883464846487058709A
:101BC00041462000FFF77AFE594680462000FFF785
:101BD000BFFE414602002000FFF770FE8046CEE7C0
:101BE00070B5050000292CD0437B8B422ED04C00D1
:101BF00000686418033C0419A278002A21D053001D
:101C00009B18033BC25CC6188A4202D11BE0002A23
:101C100008D053009B18033BC3185A788A42F6D168
:101C200062785A70002301222800A3706370FFF7C6
:101C3000D5FE697B02002800FFF740FE6873012093
:101C400000E0002070BD63783370EBE701221900DB
:101C5000FFF7C4FEF2E7C046F8B5CE46474604009B
:101C600080B506200D0000F021FA061E53D0534B1C
:101C70005349E3185A1E93418022120494465B4252
:101C80009B0D504A9B05634413604F4A1360180034
:101C90008A689043FBD1494B4C4AE31859424B4167
:101CA00080215B0049000620995200F0FFF92900CD
:101CB000C00000F065FBC30932D1402201219046EB
:101CC0006162A362266BF30736D427008025E36A9E
:101CD00000232C376D013D432B600620266300F066
:101CE000E5F94146800000F04BFB236B0600984667
:101CF000DB073BD46023E26A5A400E3313402B606B
:101D000043462363802310229B013B431A60304BE0
:101D100023630323A3643000C0BCB946B046F8BDBA
:101D20002C4A93423FD900232B492C4A6162A3627B
:101D3000266B9046F307C8D52200C02330329B01A2
:101D40001343234A06201A60656AA36AAD01ED18A1
:101D500000F0ACF9224900F013FBAD0201002800AD
:101D600000F00EFB0021FFF799FCAEE72200C02334
:101D700030329B011343164A06201A60636AA26A36
:101D80009B019946914400F091F94B4614499B02FE
:101D9000994600F0F5FA0100484600F0F1FA0021FA
:101DA000FFF77CFCA6E77F229901884602400132BA
:101DB000520819009044130082E7C0460080FCBF1F
:101DC00000C0004000E0004000F00040FC1900208E
:101DD00001030000FEFF0000FFFF0000C0FF3F0006
:101DE0004E0E000010B50C2082B000F0B7F9FEF7DF
:101DF00015FD002810D08B4B8B488B498B4A1860FF
:101E000059609860D960186159619861D961186208
:101E100059625A6202B010BD854CA06700F0A6F965
:101E20000122844B1A60636C012BFCD10322824B8C
:101E30001A607F4A936B012BFCD1013301217F4A49
:101E40007F480093043300F037F905237D4A00935F
:101E500001217D4800F030F97C4B5A68FF2A02D8F6
:101E6000802252005A608022734B6E4C12011A601D
:101E70002169002907D0606900F082FA013043002F
:101E80001B18033BFDD2E022704B714819680A40D1
:101E9000026002221968514001320A4004210260A6
:101EA0009A681142FCD080216A4A0901116080229F
:101EB00052005A60684B2361684B5968FF2900D86B
:101EC0005A60032201215B4B1A60644A93681942ED
:101ED000FCD0E023106803406148036012680323CC
:101EE0004A40022113405D4A036093681942FCD0C6
:101EF00080215C4B0901196080215B4B49005160D6
:101F000063615A4B5A68FF2A00D859608022584BA7
:101F100012011A60E169002907D0606900F030FA07
:101F2000013043001B18033BFDD2E0234F4A1168E8
:101F30000B4050490B6080214F4B090119608021F3
:101F4000394B49005160E3614C4B5A68FF2A00D875
:101F5000596080224A4B12011A60216A002907D079
:101F6000606900F00DFA013043001B18033BFDD2FD
:101F7000E023424A11680B4042490B608021424BEA
:101F80000901196080235B0053608022264BD20236
:101F900023623E4B5968914200D25A6080223C4BEA
:101FA00012011A60616A002907D0606900F0E8F93F
:101FB000013043001B18033BFDD2E023334A116874
:101FC0000B4034490B608021334B09011960802399
:101FD000DB025360154B6362304B5A68FF2A02D80C
:101FE000802252005A6080222D4B12011A60A16992
:101FF000002907D0606900F0C3F9013043001B18C5
:10200000033BFDD2E023254A11680B4025490B60B4
:102010008021254B0901196080235B005360124B1E
:10202000A361F7E6180F0020006CDC021BB700006C
:10203000008000403CB0004030B00040002F6859A4
:1020400000800240008C864700C002403080004083
:102050003090004030A00040001BB7003C800040A2
:102060003C9000403CA00040405973075480004021
:1020700054B000405490004054A0004060800040A4
:1020800060B000406090004060A000406C80004064
:102090006CB000406C9000406CA000404880004054
:1020A00048B000404890004048A00040014B8000EC
:1020B000C0587047180F0020F8B5040022481E00D1
:1020C00017000D0000F05CF90100380000F058F92D
:1020D000069B36041B031E432368002B22DB1B4B8D
:1020E0001B49E3185A1E93418022920194465B4299
:1020F0001B0B184A1B0363441360174A13601F002D
:102100008A689743FBD1C022231D92011A432123E1
:102110002560A06013602368002BFCDA0823E660CA
:102120001360F8BD3F2322681340AB42D7D1A368A8
:102130001B051B0D8342D2D1EE22E368D20213406D
:10214000B342CCD1EDE7C046001BB7000040FDBF55
:1021500000C0004000E0004000F000408023024A40
:102160009B000343D362704700800540AA23064AC0
:102170001B0113602F230549D360054B1960536879
:10218000002BFCDA7047C0460040024000B0FA0065
:10219000006002402C4B2D4A70B51A602C4A2D4B22
:1021A0002D491A6014008B689C43FBD12B4D2C4E9B
:1021B000B54208D2013E761BB60808CD98472300E9
:1021C0000134B342F9D1FFF70DFE264A214B1A60C4
:1021D000214A9368DB43DB01DD09002BF9D1402262
:1021E000214B224C224E9A675A671A67DA66B4422C
:1021F00008D223682000002B20D00834FEF754FEBC
:10220000B442F6D31B4C1C4EC022B168200000F033
:10221000FBFEB460FEF77AFBFEF71EFEFEF7F2FF50
:10222000164C174EB44208D2013E361BB60808CCF5
:1022300098472B0001359E42F9D170BD0834FEF756
:1022400025FEB442D5D3DDE700E00040BFCDFBFE64
:10225000FE7F3C0000F0004000C00040000F002066
:10226000100F0020FFFFFF0100F00140F80E0020DA
:10227000000F00200000002000ED00E0100F002003
:10228000180F002000BEFDE710B5FFF7FBFFC046AA
:102290000FB400B5084883B000F052FF049B002B38
:1022A00007D005A91800019100F018F8034800F0C4
:1022B00047FF0120FFF7E6FF68510010785100103A
:1022C00010B50148FFF7E4FF7C51001010B500285D
:1022D00000D110BD00F0E8FEFBE7C04610B5094A8A
:1022E0000300146884B0002C08D001220091064835
:1022F000524203A9A047012004B010BD00F020FF06
:102300000020F9E790190020CD2200100148042197
:10231000014B1847900E00203D230010142310B5E8
:102320000100188804331B88984710BD162310B588
:102330000100188802331B88984710BDF8B547463E
:10234000CE4680B50F1E19D01423994604330400DD
:102350000025012698464B461888434621681B886D
:10236000984701C4431E9841013540420640AF42A0
:10237000F1D13000C0BCB946B046F8BD0126F8E73F
:10238000114A936F9B0813D210665166002905D03D
:10239000FFE7FFE7FFE7516F106F704704B50028B4
:1023A00001D00020C04302F083FE002104BDC046DE
:1023B000F0B5146E556E576F166FFFF7E5FF146694
:1023C000556657671667F0BD000000D094464A4A2C
:1023D000926F9208624601D228E0C046F0B5464EA0
:1023E000346E756E776F366F00F020F89446424A6F
:1023F00014665566576716676246F0BD94463E4AB6
:10240000926F9208624601D254E0C046F0B53A4E4F
:10241000346E756E776F366F00F04CF89446364A1E
:1024200014665566576716676246F0BD002B24DBBD
:1024300011D000293EDA00B5C943404200D1013134
:1024400000F038F8C943404200D10131DB43524229
:1024500000D1013300BD002AEBD1002801D10029B1
:1024600005D00020C90FC90701D1C043410800B5FC
:1024700002F00EFE0022002300BD00B500290ADB99
:10248000DB43524200D1013300F014F8C94340420B
:1024900000D1013100BDC943404200D10131DB43CD
:1024A000524200D1013300F005F8DB43524200D123
:1024B000013300BD002923D1002B18D1002A0CD0F4
:1024C000BC460D4F38667A6600210023FFE7FFE720
:1024D000FFE77A6F386F67467047002801D00748DA
:1024E000010000B502F0D4FD0022002300BD02006F
:1024F0000B00002000217047000000D0FFFFFFFF0D
:10250000002B00D0BFE0130C28D1002AE7D080B404
:10251000114F39667A66FFE7FFE730B4040C7B6F32
:10252000396F1B0423433B667A66FFE7FFE7FFE74B
:10253000C04684B27B6F3D6F1B0423433B667A66C3
:10254000FFE7FFE7C04600232C042D0C7A6F386F9D
:1025500000196941B0BC7047000000D0F0B5944646
:102560000025140E01D112020835140F01D11201F9
:102570000435940F01D192000235D40F01D15200DD
:102580000135D40B0134254F7C66254C3C660E0C7E
:1025900093B2FFE7FFE7FFE73C6F6643360C770334
:1025A000BE467343DF0B5B04C01AB941130C73437F
:1025B000DB18C91ACE086643360CB64493B273438F
:1025C0001F0F1B01C01AB941130C73431F0B1B05CE
:1025D000C01AB941860D8F023E436643360C092D61
:1025E00024DB520A7243801A7703460A6643360C8C
:1025F00016235B1BDE40DF40BF1964466643821B27
:102600007046043506330100D940A840C01900D3F4
:102610000131A24206D20023F0BD0000000000D02C
:10262000FFFFFFFF121B0130F3D3F1E709277F1BE8
:10263000FE406446A2B27243801A00D20139220CD5
:102640007243130C1204821A99410B007046043530
:1026500013370100F940A840801900D30131002B45
:1026600002D1A2420AD2F0BD013000D30131121BC7
:10267000FAD2013BF8D1A24200D2F0BD013000D322
:102680000131121BF7E7F0B51C0C00D080E00CB450
:1026900000251C0A04D11B02160E33431202083512
:1026A0001C0B04D11B01160F3343120104359C0B84
:1026B00004D19B00960F334392000235DC0B02D10C
:1026C00092185B4101351C00971864410134464F54
:1026D0007C66464C3C660E0CFFE7FFE7FFE7C04612
:1026E0003C6F6643360C7703BE4697B27743C01BF8
:1026F00000D20139C01B00D201399FB27743C91BF8
:10270000C91B170C77437E04FF0B801BB941CE0811
:102710006643360C0C2D33DBB644120B1F053A43CF
:102720001B0B97B27743C01B00D201399FB277438E
:10273000C91B170C77433E043F0C801BB941860D23
:102740008F023E43664329277F1BFE400C3D7746A0
:10275000AF40BF1930BCA2B2ABB272437343801A10
:102760009941220C7243130C1204801A9941020001
:102770000B000137001BA941F9D2781E0021F0BDE2
:102780000C277F1BFE4077467F0BAF40FF19E0E729
:1027900000245D1C07D0144F7D663966FFE7FFE714
:1027A000FFE7FFE73C6F95B29EB265436643401B6F
:1027B000B141150C1E0C6543664336042F0C3E4395
:1027C0002D04401BB141994204D202000B002000AD
:1027D0000021F0BD01D19042F7D3801A9941013414
:1027E0009942F2D3F6E70000000000D0FFFFFFFFA0
:1027F00048404140484018B41B4B5B68FC4601937D
:1028000008BD04DF8B29001018B4174B1B68FC4669
:10281000019308BD00DF952900109446134A926F7A
:10282000920809D2624618B40F4BDB68FC4601934C
:1028300008BD0CDF4D2C00100C4AF0B5146E556E1F
:10284000576F166F6246FFF7EEFF084A146655662B
:1028500057671667F0BD18B4034B9B68FC4601939D
:1028600008BD08DFF12A001040100020000000D051
:102870000021002805D17047C1174840401AFAD0FE
:10288000C90713B5064B1B6898470CBC441CA240F3
:102890001005120B0349091B09051943114310BD0B
:1028A000DC1900201F04000018B4044BDB6FFC4649
:1028B000019308BD7CDFFD2D0010000040100020BA
:1028C000132370B51D78012D15D010DD1D48FFF7BD
:1028D0002DFD1D4C01008022200000F095FB022DF3
:1028E0002DD01A48FFF71AFD194B186070BD194B0F
:1028F000154CA364F5E7174B134C23606360A3608A
:10290000E36023616361A361E36123626362A362A5
:10291000E36223636363A363E36323646364A36485
:10292000E36423656365A365E36523666366A36665
:10293000E36623676367A367E367A364D1E7054B97
:10294000A364CEE753440000401000204C33000045
:10295000DC1900205929001007B5604601880A0AD1
:102960000230DF2AFAD1C9B2820804D30288408833
:102970000004104300E00068014A5050039007BD76
:10298000401000200FB403BC0CBCF0B50124E407D8
:10299000634000E0F0B50C0DCF0F661E3605891BB5
:1029A000640503D3C943404200D30131640D03D011
:1029B000661CF60A07D0E41B00207F00791C8907FB
:1029C0008912803C24031D0DDF0F6E1E36059B1BF4
:1029D0006D0503D3DB43524200D301336D0D03D0A9
:1029E0006E1CF60A07D0ED1B00227F007B1C9B07A4
:1029F0009B12803D2D032F1B661B58D4A446202E0E
:102A000046DA20371400BC401D00BD40F24033417F
:102A10002A4380185941CB0F05D0C943C043002237
:102A200064425041514162464D0D28D10D0D07D1F0
:102A300000281FD0241940414941013A0D0DF9D019
:102A4000640006D3013000D30131002C01D14008CD
:102A50004000013A0BD4941CE40A04D1120511443D
:102A6000DB071944F0BDD907204B194300E0D90713
:102A70000020F0BD0029DDD1002CDBD1F0BD0132FA
:102A8000C6074008CD0728434908002EE1D0D9E702
:102A90003C2E29DA203E40371400BC4000D00124EF
:102AA000F24014431A00BB401C43D317ACE7AC46BA
:102AB000202F08DA20360400B4400D00B540F8405D
:102AC00039412843A5E73C2F0CDA203F403604006B
:102AD000B44000D00124F84004430800B1400C4346
:102AE000C117EAE710001900002494E70000F07F06
:102AF000F0B50C0D661E3605891BE60A6405640DEB
:102B000002D0651CED0A04D0002001210905803C9B
:102B10002403A4461C0D671E3F05DB1BE70A640562
:102B2000640D02D0651CED0A04D0002201231B05B0
:102B3000803C24037740644497B484B296B27443D3
:102B4000070C7E43150C6F4380B26843361802D3DE
:102B5000012000043F183004350C00197D418446E3
:102B600088B29AB250430C0C62431F0C7C438EB265
:102B70007E43921902D301263604A4191604170CB9
:102B80003618674101BC81B29AB25143040C6243CA
:102B90001B0C5C4380B25843121802D3012000047E
:102BA00024181004130C401863412D185E410020B6
:102BB000474106BC88B293B258430C0C6343120CD5
:102BC000544389B251435B1802D3012109046418AC
:102BD00019041A0C091862416D185641002047412A
:102BE00018BCF902720D1143F0026A0D1043ED0298
:102BF0000A0D03D16D1940414941013B124E9B1B07
:102C00007600B3420ED26D0007D301300026714129
:102C10006646354301D1400840001B05C918E4074A
:102C20002144F0BD0BDA013306D1013004D101316A
:102C30004F0D01D04908F2E7E1070020F0BD013651
:102C400031050020EBE70000FF030000F0B51C0D8C
:102C5000671E3F05DB1BE70A6405640D02D0661C96
:102C6000F60A04D0002201231B05803C2403D02552
:102C70002D060026F6432E661E096E66CE0FF61947
:102C8000B44649004F0D02D07E1CF60A03D0002046
:102C90000021403F3F033E1BB600B444013F7F0587
:102CA000C91B49082E6F013676089C02950D2543F5
:102CB0007543ED137543AD1301356D10F603761BA7
:102CC0000CB4CC02450D2C43A2B2B3B25A43270C2C
:102CD0007B43350C6F43A4B26C431B1902D3012410
:102CE00024043F191C041D0CA4187D4124196D41B6
:102CF000009A91B2ACB26143170C7C432B0C5F433A
:102D000092B25A43A41802D301221204BF1822041B
:102D1000230C52187B41019C6C431B19520ED901A4
:102D20000A434401A01A81B2B2B2514303145A4378
:102D3000360C734387B27743D617D21900277E41EA
:102D400036049B191704160C7F185E417316ED1894
:102D5000F301002680337541A90F06D16400690A8A
:102D6000E8055B0A184309D22FE00422944480331B
:102D70007541A90AA8059B0A184326D34041494139
:102D80002404009A019B0D005543641B4343E41A3D
:102D900095B286B27543170C7E43030C5F4392B223
:102DA0005A43B61802D301221204BF183204330C5E
:102DB00052197B4152429C41002C02D40022013026
:102DC00051414008CA071043490802B06246D7077C
:102DD0009210084BD218084B9A4203D21205891858
:102DE000C919F0BD0020002A01DC3900F0BD013313
:102DF0001905F5E7FD030000FE0700004A00520D2B
:102E0000144BD21A13DDFF2A1EDAD205CB0FDB07D3
:102E10001A43C300400F0903490A084310435B00EB
:102E200001D301D0013070474308FBD2704702D074
:102E3000C80FC00770470A0312130132F8D1420FBE
:102E4000072AF5D1012200E0FF22C80F00028018F6
:102E5000C00570478003000051434343C9188C46A6
:102E6000110C83B24B4310B4040C614392B280B294
:102E7000504362431C041B0C001910BC594113043D
:102E8000120CC01851416144704700004840414055
:102E900048400E4B5B6818470C4B1B6818470C4AA0
:102EA000936F9B0802D2094BDB681847F0B5146E8C
:102EB000556E576F166FFFF7F6FF054A1466556695
:102EC00057671667F0BD014B9B68184740110020FB
:102ED000000000D041000A0E80231B067E2A0BDD75
:102EE0009E3A0BDAC1174002400818435242D040C4
:102EF000490001314843704700207047C00FC01897
:102F000001387047C0420DD300B540004008002191
:102F100000F012F8002801D4404200BD80200006D5
:102F200000BD0000034BDB69FC4618471CDFD52FB2
:102F30000010000040110020014B5B6A18470000A0
:102F400040110020132310B512481C78FFF7EEF94A
:102F50000100012C0AD003DD80220F4800F054F854
:102F60000E48FFF7DBF90E4B186010BD0A4C5422D7
:102F7000200000F049F80B4B6365A365E365236609
:102F80006366A366E36623676367A367E3672362F9
:102F9000E361E5E753460000401100204C33000098
:102FA000DC190020A92F001007B5604601880A0A25
:102FB0000230DF2AFAD1C9B2820804D302884088DD
:102FC0000004104300E00068014A5050039007BD20
:102FD000401100200021C2158032803201D0024A07
:102FE0001047002070470000CD2A0000014804214E
:102FF000014B1847A00E00203D230010014B1B6819
:1030000018470000A00E0020014B5B681847000025
:10301000A00E0020F0B5C64600B5437D07000D00A8
:103020001600002B38D0002A2EDD00216A1E9046A3
:103030006A5C037D4C1C00200A2A0CD0A64216D0E4
:1030400043461B5D21000D3B5A4253416A5CDBB293
:103050004C1C0A2AF2D1002BF0D1884217DB022146
:1030600010483B689847A64207D02000E8E7864210
:1030700003DD311A3B6828189847AD19013D2B78BC
:103080000D3B5A4253413B7580BCB846F0BD091A0E
:103090003B6828189847E2E7036811002800984722
:1030A000F2E7C0468C530010F0B5CE46474680B5D7
:1030B00083B06B460600DD1D2870FEF7E5FA00239D
:1030C0001A4A12184B41802109068B4202D3012271
:1030D000174B524217490800884601F0F9FF164B7A
:1030E00081461C68002C14D0144F02E02469002C87
:1030F0000FD02368002BF9D03B68002B01D0A342EE
:10310000F4D1200001222900FFF784FF2469002C5C
:10311000EFD14B46002B05D1300003B0C0BCB946FF
:10312000B046F0BD404601F0ABFFF5E740420F006E
:10313000FFFFFF7FF80E0020841500208C15002073
:10314000F0B5DE4657464E464546E0B585B0070029
:1031500001F04EFF0600FEF797FA00232B4A1218E3
:103160004B41802109068B4202D30122284B524257
:10317000284908008B4601F0ABFF274B01901C68E3
:103180009A46002C3BD0254B984602ABDD1D0A2306
:10319000994602E02469002C17D02368002BF9D04F
:1031A00043461B68002B01D09C42F3D12000320023
:1031B0003900FFF72FFF4B462000012229002B701A
:1031C000FFF728FF2469002CE7D1019B002B18D1C1
:1031D00053461C68002C06D06368002B0BD0984720
:1031E0002469002CF8D1300005B0F0BCBB46B246D3
:1031F000A946A046F0BD2469002CEDD1F3E70028D4
:10320000F1D0584601F03CFFE2E7C04640420F00D3
:10321000FFFFFF7FF80E0020841500208C15002092
:103220000A4A1368002B05D10CE01A001B69103202
:10323000002B07D09842F8D1002902D1036913600E
:10324000016170470029FCD01060FAE78415002066
:10325000F0B5002915DD0E4B0D271A680D4B0E4CED
:10326000D3185D426B41451820215B001E5F047836
:10327000A64207D093691942FCD101301460A842DC
:10328000F5D1F0BD93691942FCD11760F2E7C04651
:10329000041A00200080FCBFFC190020214B70B5EF
:1032A00004000D1E1E682CDD002010211E4B013C69
:1032B0001A689369194215D1013093691942FCD1FA
:1032C000136823548542F4D1002E09D050233821AD
:1032D0009363536B3432194080235B0113431960AD
:1032E00028000DE0002E09D0502338219363536B42
:1032F0003432194080235B011A43116000280ED03C
:1033000070BD002E0BD050223821074B1B689A63EA
:103310005A6B343311408022520113431960032049
:103320004042EDE738150020041A0020064B10B586
:103330001B68002B06D00021044A12689163044ADE
:103340001068984710BDC04638150020041A0020A8
:103350003C1500201D4BF0B51A68C64698461C4B1C
:103360000E00D31859424B411A4F14331C0005006C
:1033700000B53B68002807D0002B11D0164B3D60EC
:103380001E6080BCB846F0BD002BF7D090630021D2
:103390002000FDF7E7FA20001049FDF721FCEDE7DA
:1033A00020000E49FDF7F8FA01212000FDF7DAFAB6
:1033B0004346502238211B689A635A6B34331140BC
:1033C0008022520113431960D8E7C046041A002036
:1033D0000080FCBF381500203C1500202D33001064
:1033E00070B50C4E0D001C003060002A03DB02217A
:1033F0001000FDF7DDF9002C03DB02212000FDF7B2
:10340000D7F929003068FEF727FC01210248FFF7B1
:1034100007FF70BD041A0020B00E002010B502484E
:1034200000F0D8F810BDC046C019002030B54B1EC2
:10343000012900D1A7E0664A11780D092C0030342B
:103440009F2900D9A2E00470012B00D1BEE00F211A
:10345000147821400C003034092900D998E04470D8
:10346000022B00D1B2E054782509290030319F2C7D
:1034700000D990E08170032B00D1A7E00F212140FB
:103480000C003034092900D987E0C470042B00D126
:103490009CE094782509290030319F2C00D97FE0E9
:1034A0000171052B00D191E00F2121400C00303437
:1034B000092900D976E04471062B00D186E0D47842
:1034C0002509290030319F2C00D96EE08171072B2E
:1034D00000D17BE00F2121400C003034092966D84F
:1034E000C471082B00D171E014792509290030310D
:1034F0009F2C5FD80172092B68D00F2121400C004E
:103500003034092958D844720A2B5FD054792509E0
:10351000290030319F2C52D881720B2B56D00F21AD
:1035200021400C00303409294BD8C4720C2B4DD0EB
:1035300094792509290030319F2C00D90731017376
:103540000D2B43D00F2121400C003034092901D923
:1035500037310C0044730E2B38D0D1790C0922007E
:1035600030329F2900D9073282730F2B2ED00F22C1
:103570000A4011003731092A01D830321100C173D5
:10358000102B23D010300023037030BD07345AE7CE
:1035900037310C0063E707316CE737310C0074E713
:1035A00007317DE737310C0085E707318EE737318A
:1035B0000C0095E707319DE737310C00A3E7073191
:1035C000AAE737310C00C4720C2BB1D1C018DAE76E
:1035D000C019002010B588B004000D2200216846F3
:1035E000FFF70CFD0D22002104A8FFF707FD4B2378
:1035F0006A466846137004A90D2201F039FD1521B1
:10360000082220006944FFF7FFFC08B010BDC04647
:1036100010B501210520FDF7A5F910BD10B5002258
:103620000021024800F064F910BDC046B01500202A
:1036300080219022034B8902995080225201DA6442
:103640007047C046002011508022024B5202DA64BB
:103650007047C04600201150F0B5C64600B50600C0
:1036600000F020F90C231B4DFF22AB6705201A49FF
:10367000FDF7BCF940239846184C40220021200059
:10368000FFF7BCFC43460127238321210023144A72
:103690006770A260136063545F3161844146218783
:1036A000053963540F4A10496360E260A1620B6000
:1036B0006362E26201F0CCFC80239B052F64EB6423
:1036C00090230A4A3000EA50FFF7BEFF80BCB8469C
:1036D000F0BDC0460000115061040020901500208C
:1036E00084001050000110508000105010D00100D4
:1036F0000B785B0602D14B78052B00D070478A7897
:10370000014B1A60FAE7C04600001150F0B5C646FA
:1037100000B5CC7888780A794B797F21A4070140DD
:103720001B02C50913434F00A20F1400324E7A1931
:103730005201B218907001206840507000205B0563
:103740005B0DD0701383D4768046CA00012D33D030
:103750002A488446880162448446B44460468260B4
:1037600040461060002933D0254AC9009046624681
:10377000414451603F223F339343022C00D15B0010
:1037800020487A1901685201B218D1601E4ACB183C
:10379000036051405A40802388465B019A4228D8F2
:1037A0004346A4061C4380237F197F01F6197268E3
:1037B0001B062343136011E01448844688016244C9
:1037C0008446B4446046826240461060002909D1B4
:1037D00000236D0175196B600D4BEB60012080BCFF
:1037E000B846F0BD084AC90090466246414451625D
:1037F000C0E7FEF765FDD3E7901500208400105068
:103800000400105094190020000010508000105047
:103810000001105010B501F01BFC10BD10B57F2049
:103820000C0020404000E409110000191A00034B6D
:103830004001C01800F05CF8012010BD9015002078
:103840007F23180010B50840CA090B4203D107496D
:103850007D3B9B1A8B66400080188022044B400100
:103860000021C018120101F043FC10BD00201150CE
:10387000901500207F22130010B50B400A4200D1A2
:1038800010BDC9095B005B1804485B01C018002328
:1038900000220349C37001F02BFCF1E790150020D2
:1038A000FFF7FFFF80220D4B520410B51A600C4B3E
:1038B0000C491A6010008B689843FBD10A4C9C227B
:1038C00000212000FFF79AFB8022002152010748C7
:1038D000FFF794FB0923636710BDC04600E000407A
:1038E00000F0004000C000400000115000001050E7
:1038F000002310B5C3820133828283760161040004
:1039000001F0CEFB002804D080219023074A8902D1
:10391000D150200001F0A4FB002802D0012323771E
:1039200010BD200001F0DCFBFAE7C046002011507A
:10393000024B5878431E9841C0B270470C130020C8
:10394000024B18784007C00F7047C0460C13002088
:10395000094A10B513785B07DC0F002B05DA182332
:1039600012781340182B02D00024200010BD034B06
:103970001878FFF75DFEF8E70C130020EC0E00202E
:10398000034B1878FF38431E9841C0B27047C046B9
:10399000EC0E0020F8B5CE46474680B52A4E05000D
:1039A0003378FF2B01D001203DE05322002127482E
:1039B000FFF724FB264C2000FDF768FA254B1C601E
:1039C000254C2000143CFDF77DFA200001F08CF915
:1039D000224B234F1C60234B9846002F1ED018000B
:1039E00000E000BF204B186043461B781F4A0024AC
:1039F0009146002F14D04A46A3421AD89047434616
:103A000001341B78E4B2A342F3D228003570FFF7EB
:103A100023FE2800FFF7FCFD012004E01B78E5E70A
:103A2000002C04D00020C0BCB946B046F8BD0F4AF7
:103A3000E4E70D4A630012681B19DB00D318002B62
:103A4000F0D01A68DAE7C046EC0E00200C13002014
:103A5000C412002060130020E40E00206413002034
:103A600000000000081A002040120020BD4700108E
:103A7000F0B5DE4657464E464546E0B58DB001F0FE
:103A80000DF8002800D100E1C64BC74E9B46C74B3E
:103A900009AC0193C64B00969A46009B1D686A6963
:103AA000EFF3108172B61368002BFCD0BFF35F8F69
:103AB000A9612800210001F075F86A69AB69BFF3BC
:103AC0005F8F0021116083F31088002800D1DCE0B3
:103AD0006378082BE1D85A469B00D3589F46636809
:103AE000002BDAD0A0689847D7E77F202179AF4D27
:103AF00008404300CA09EB189B181D000127303508
:103B0000EA78BA43EA70EA780337BA43EA700028E1
:103B100000D1F8E0A74FDB7C002F06D0A64A127830
:103B2000934200D2F7E09B1ADBB2002B00D0ACE04E
:103B3000A24DA36862792078A847AEE701229B4D89
:103B400001202B78042113432B703323EA5C82433A
:103B5000EA54EA5C8A43EA540133EA5C8243EA5459
:103B6000EA5C00208A43EA542378994600F09EFCE0
:103B7000602223791A40602A00D1BBE0402A00D19C
:103B8000B5E0DB06DB0E012B00D1D9E0022B00D122
:103B900026E1002B00D0ADE0202A00D159E1002A17
:103BA00000D0A7E06379092B00D9A3E0844A9B00E9
:103BB000D3589F46019B1B78DB0700D46DE7814BF0
:103BC000002B00D169E7FCF7F7FB66E7774D2B7810
:103BD000DB0700D461E77C4B002B00D15DE7287840
:103BE0000007C00FFCF7E0FB57E700255646237897
:103BF000704F9946704B98461B78002F4CD032007E
:103C00009D4268D348469047434601351B78EDB244
:103C1000AB42F2D2654D532200212800FFF7EEF9A6
:103C20001022FF21E81CFFF7E9F928002022FF21DC
:103C30001330B246FFF7E2F931E00025564623780B
:103C40005C4F99465C4B98461B78002F30D0320071
:103C5000AB4236D848469047434601351B78EDB213
:103C6000AB42F2D2514D532200212800FFF7C6F992
:103C70001022FF21E81CFFF7C1F928002022FF21B4
:103C80001330B246FFF7BAF916E00DB0F0BCBB46F0
:103C9000B246A946A046F0BD002D26D0B24600F09F
:103CA000FBFB4A4B002B00D1F7E6FCF777FBF4E671
:103CB000002D2ED0B2463D4D00F0EEFB2379AB70C7
:103CC000EBE6434A6B0012685B19DB00D318002B4C
:103CD000F0D05A68BEE73E4A6B0012685B19DB0001
:103CE000D318002BDAD05A688CE7314A8AE7394872
:103CF00000281AD120780021FFF7A2FD802120782A
:103D0000FFF79EFDC9E6A3686279207800F0E2FB28
:103D1000C3E6274A9EE72E4A58001268C318DB0004
:103D2000D318002BB1D01D6903E700F0BFFB0121C0
:103D300048460AAA00E000BF002800D0ADE6D9E757
:103D4000237A0F2BD6D81B4FEB18DB78002F06D029
:103D5000194A1278934200D29CE09B1ADBB2002BE6
:103D6000C8D11D481D4D00F0A1FB01214846EB685C
:103D70000AAA9847002800D08FE660221500237910
:103D80001D401A42B6D163790A3B012BB2D800F02C
:103D90008DFB63790A2B00D179E148460AA900F02E
:103DA0000FFB7AE690530010641300200C130020E0
:103DB000D147001000000000081A0020314A00100E
:103DC000B4530010B9030010A90300109D030010A4
:103DD00040120020000000006D4800101C5400102C
:103DE0007023217A0B4285D1C80984460F330B40DA
:103DF0005B00E8186044C07CAF4F8046002F07D0BE
:103E0000AE480078804550D34646301AC0B280464E
:103E1000404600283AD1002A00D0F5E0A84A904652
:103E2000677902203A008243012A00D1F0E0002F96
:103E300000D05FE7EB1863443033DB7808AA9B07B8
:103E4000DB0F02321380484602230AA900F0CEFAA3
:103E500023E6237A0F2B00D94CE7974FEB18DB783A
:103E6000002F06D0954A1278934200D2F3E09B1AB5
:103E7000DBB2002B00D03DE79248914D00F016FBDD
:103E800001214846EB680AAA984755E79046002A60
:103E9000C6D02FE78C4A59001568CB18DB00ED1807
:103EA000002D00D126E7E8685DE7464686487700A2
:103EB000006847448046FF00B844002AB0D043461B
:103EC000002B00D116E7D86800F0F0FA4346012134
:103ED0004846DB680AAA98472EE7A37902931A009E
:103EE0006B789A4207D06B78002B00D04DE1029B93
:103EF000002B00D0F4E0029B48460AA96B7000F04A
:103F00005FFACAE56B7808AA0232137048460123AB
:103F10000AA900F06BFAC0E5E3881A0AD8B20F2AA2
:103F200000D9E7E669499300CB589F460AA800F0FC
:103F3000C3FA4846A179FFF771FB02222B7813439D
:103F40002B70AAE5E388012B00D0D3E608222B785A
:103F5000484693430AA92B7000F032FA9DE50220EF
:103F6000297808AB9A1C8B068908DB0F01400B43AC
:103F700068E7E388012B00D0BCE608222B7848468E
:103F800013430AA92B7000F01BFA86E5504B002B57
:103F900000D1AFE600E000BF021E00D1AAE6D37850
:103FA00091781B020B4348460AA900F01FFAC3E6AA
:103FB000484B002B00D19DE600E000BF021E00D15F
:103FC00098E6484613780AA900F010FAB4E6218969
:103FD000FCF7AEFB021EF4D18CE6022A00D11BE1F5
:103FE0003D4B002B00D185E600E000BF0200002A17
:103FF00000D17FE6D3E7FCF78FFB122302000AA96A
:10400000484600F0F3F997E62D4B2E4898465BE7BB
:10401000E288002A09D1314A1078012F26D0EF1802
:1040200067443037FB789B073AD54346002B00D1D5
:1040300033E5D86800F03AFA43460121DB680AAA62
:1040400048469847002000F031FA3423EB5CDB0748
:1040500000D522E5A1E61C4A59001568CB18DB0003
:10406000ED18002D00D145E6E86807E7EB1863443A
:1040700030331E00DB789B07D7D5FFF7FBFB02220E
:10408000F3789343F370F378BB43F370CDE708AB59
:104090009A1C484601230AA9157000F0A7F9FCE410
:1040A000FFF7CEFB0222FB7813430122FB70FB7863
:1040B0001343FB70B9E7C04600000000081A002057
:1040C0001C5400106D48001040120020DC530010FA
:1040D000000000000000000000000000EC0E0020C6
:1040E000581EC0B2FCF720FB002800D102E643783E
:1040F000022B00D0FEE50121C3799A115B110A4021
:104100000B4052011B0113432A782F318A4313437A
:104110002B700923984680444646A846C378827887
:104120001B021343C3180393524B0693039BB342E2
:1041300078D90122737804920B2B03D1F37804937E
:104140003378F6187378042B00D0D3E50027039B4F
:104150009B1B9BB21D00484B1A780593474B079356
:10416000079B002B53D0069BBA4246D82A00310049
:1041700048469847082801D985425BD2059B0137FC
:104180001A78FFB2BA42EBD2B4E500264846FFF7F0
:1041900041FBAB783A4A0393374B384F98461B782C
:1041A0000492002F1AD0049AB3421CD84846904774
:1041B000434601361B78F6B2B342F2D253220021B5
:1041C0002800FEF71BFF1022FF212E48FEF716FFE6
:1041D0002022FF212C48FEF711FF01E0002E1FD006
:1041E000039BAB7083E6294A730012689B19DB00BE
:1041F000D318002BF4D05A68D8E71822234B7A43FF
:104200001B689B18002B00D174E59B68AEE7002F5C
:1042100000D06FE5174BA9E7FCF786FA0200E6E647
:10422000174AC3E71A4B4546002B00D163E6FCF75B
:10423000ADF860E60500002240460AE0B378D318E6
:10424000DBB2C318D978FF2900D053E50132DF7003
:10425000D2B2049B9A42F1D13B00310080462A0041
:10426000094800F085FC059B76191B78BB4200D3FA
:104270005CE73FE5E5470010081A00200000000059
:10428000D14700100F1300201F1300204012002000
:104290008D030010F8B557464E46DE4645460C00E5
:1042A000E0B516001F00002A3CD01F4B00259A469F
:1042B000702399461D4B9B4617E05B46200099787A
:1042C00000F018FC00281FD021004046FFF71EFA1E
:1042D000002819D0A378DA09012A1CD00A9A0135DE
:1042E00013702378E418B5421CDA6378052B0BD1E0
:1042F000E3789B079B0FBB4206D153464A461B7887
:104300009846A3781A42D8D00020F0BCBB46B246EB
:10431000A946A046F8BD0B9A013513702378E4181E
:10432000B542E2DB0120F0E7EC0E00200C13002088
:104330000B007F2010B51840DB0933334000044ADE
:10434000C018044B1168C01800F0ACFB10BDC0468B
:10435000601300200C13002070B57F240F480C4020
:1043600064000419CD0964193034E078C00701D520
:10437000002070BD0126E578094835430078E570D6
:10438000FFF74CFA0028F4D10122E3789343E3705D
:10439000E37803329343E370EAE7C0460C1300204E
:1043A000EC0E00207F22054B0A405200C9099B18E1
:1043B0005B183033D878C007C00F70470C1300204B
:1043C00070B5094C0600082220000D00FEF71CFE07
:1043D00000238021E360A3602B7830009943002202
:1043E0000023FFF7B9FF70BD44120020F8B5CE4698
:1043F00047469046264E80B58146082230000D0083
:104400001F00FEF701FE4346B3600023F381EC7901
:10441000AB7924021C43231CBC4200D93B1C9FB235
:10442000B381002C0ED0002F18D04346002B2CD087
:104430003B1C402F1BD89FB233787F2B1CD8002108
:10444000144A0FE080212B7800229943484600232C
:10445000FFF782FFC0BCB946B046F8BD7F230022FB
:10446000317899433B004846FFF776FFF2E7402357
:104470009FB233787F2BE2D9064C3A0041462000A8
:10448000FEF7C2FD80212200ECE70020E2E7C046F3
:1044900044120020CC12002010B514220021024842
:1044A000FEF7ACFD10BDC04644120020014B186160
:1044B0007047C0464412002010B5054C0100082288
:1044C0002000FEF7A1FD0023A360E36010BDC046FD
:1044D0004412002070B5394C1D0023780600DA091B
:1044E000C9098A4213D00020002D00D070BD344B82
:1044F000002B03D021003000FFF7FAF82369002BCE
:1045000003D022000321300098470120EEE7A06885
:104510007F2B05D8002834D02A002A49FEF774FDE5
:10452000E289A1685219E38892B24919E281A16037
:10453000934214D03F2D12D9A389981A051C80B23A
:1045400040282AD82078ADB27F2828D800219A4266
:1045500032D01C4A2B003000FFF7FEFEC6E723696D
:10456000002B05D0220002213000984700280AD0F5
:10457000802123780022994330000023FFF7ECFECE
:10458000B4E70020B2E700213000FFF759F930000E
:104590008021FFF755F90120A8E74025D2E79A428C
:1045A00007D0084C2A002000FEF72EFD80212200B3
:1045B000D0E780210022CDE70022CBE74412002083
:1045C000F1360010CC1200202C2242430B4B10B5C8
:1045D0009B185C78FFF7ACF9002801D1002010BDD2
:1045E000FFF7AEF90028F9D1002CF7D02100FFF732
:1045F000D9FE01235840C0B2F1E7C046981200200E
:10460000F8B52C244746CE464443214E80B51F00C2
:10461000331905008846002059789146FFF788FE37
:1046200000281DD0434608343419002B1CD03B1CF5
:104630000F2F23D89FB22C2342466B43F3181A72D4
:1046400049463A00601CFEF7DFFC0137BFB22C235D
:104650006B43F61822003B0000207178FFF77CFEC8
:10466000C0BCB946B046F8BD3B1C102F08D89FB25D
:104670003A0049462000FEF7C7FCE8E70F23D9E7D8
:1046800010239FB23A0049462000FEF7BDFCDEE74A
:1046900098120020F0B54746CE4680B583B06E46EE
:1046A0008846190000233270050006227370002925
:1046B0002DD0B01CFEF7A8FC2C246C43164F002014
:1046C0003B1959789946FFF733FE002810D043462E
:1046D00008343C19002B10D1230006CE06C3082352
:1046E0002C226A43BF18002022007978FFF734FE9D
:1046F00003B0C0BCB946B046F0BD4B46424631009F
:104700001A72601C0822FEF77FFC0923E8E70021EB
:10471000B01CFEF773FCCFE798120020F0B55746A7
:104720004E464546DE462C2491460022E0B583B035
:1047300098460CAB1B7844435BB29B460DAB1B7891
:104740001D4E5BB200930EAB0F009A563119050057
:104750008A46002049780192FFF7EAFD002815D02B
:1047600008343219002F18D14B461370434653704A
:104770005B469370009BD370019B137105232C2122
:104780006943761800207178FFF7E6FD03B0F0BCAE
:10479000BB46B246A946A046F0BD51460F724946F7
:1047A0005170414691705946009BD1701371019B25
:1047B00053710623E3E7C0469812002010B52C225F
:1047C00000210248FEF71AFC10BDC04698120020D6
:1047D00010B52C2200210248FEF710FC10BDC04687
:1047E00098120020F0B54B7906000D0083B0032B22
:1047F0000FD10879C400241A1234A4B2944208D804
:10480000194F7B78002B04D1297869184B78212B1C
:1048100003D00024200003B0F0BDB9620B78020081
:10482000C9187B1C0193BB1C009330000323FFF7C6
:1048300031FD0028EDD0AB79012B01D1EB79FB7074
:1048400001233B71AB78B9783B70BB6ADA791B7A8C
:104850001B021343FB800029DCD03A0010233000F8
:104860001832FFF779FDD5E7981200201F23F0B525
:1048700014001278050083B01340012B1BD1634E46
:1048800020793378984216D16023180010401342E3
:1048900008D020280FD163780B2B0CD85C4A9B00E2
:1048A000D3589F46012918D1E378A17862781B027A
:1048B0000B43062A02D0002003B0F0BD1B0A212BB7
:1048C00000D187E0222BF6D10020FBF729FF210041
:1048D0000200F3882800FFF789FD0120ECE7012999
:1048E000FBD1E1784B4B7171002B04D0002000E02C
:1048F00000BF0028DFD021002800FFF761FD012064
:10490000DAE7012970D00329E7D1E079A379000221
:104910001843E278A178041C102800D910243E4BDB
:10492000A4B2002907D0012805D9307E884202D1DF
:10493000013C3A4BA4B200200094FBF7CFFE0120CB
:10494000BAE70129D7D00329C7D1A178344B3171F7
:10495000002BC2D0002000E000BF0120ACE70129FD
:10496000BBD1E379A0791B020343E278A178181C3C
:10497000102B00D9102080B2002943D0012B41D93F
:10498000330001270138317280B2093300900020D2
:10499000FBF7A2FE3B189BB2002B00D18BE7210056
:1049A0002800204AFFF722FD012085E7012994D144
:1049B0000123210028001C4AFFF718FD01207BE796
:1049C00001298AD1012321002800184AFFF70EFD92
:1049D000012071E7B26A002A00D16CE721002800AB
:1049E0001378FFF703FD67E7E379A2791B0213430E
:1049F000102B00D95FE721002800074AFFF7F6FCDB
:104A0000012059E70027074BC0E7C0469812002055
:104A10003454001000000000B0120020B112002039
:104A200000000000A01200209C1200209D12002017
:104A300070B5144C0500A278667882B08A420ED018
:104A400000208E4201D002B070BD0F4A002A04D06F
:104A500000200E499AB2FBF773FD0120F3E796425E
:104A6000F3D026009BB218360093002233000021B9
:104A70000020FBF733FE102332002800A178FFF757
:104A80006BFCE0E79812002041050010A012002006
:104A900010B50020FEF77EFF10BDC04610B5FEF732
:104AA0006FFF10BD037870B5DB0704000E00DD0F4B
:104AB000002B17D103785B0701D5280070BD0121B9
:104AC0003000494200F0FCFA2378DB07DD0F002BB1
:104AD0000AD123785B0708D40422237801251343E5
:104AE000237002E00025E8E70025300000F0C8FA56
:104AF000E3E7C046437902791B021343C2785B05A2
:104B000092075B0D920F022A1DD0032A0CD00020C1
:104B1000012A08D102394A425141124A944661445D
:104B200099424041C0B2704702394A1E91410E4A33
:104B3000494211408022D2009446002061449942AB
:104B40004041C0B2EFE7022905D0002040229A423E
:104B50004041C0B2E7E7054A981843425841C0B205
:104B6000E1E7C046FF03000040FCFFFF00FEFFFF3F
:104B70008A1870B5914207D27F264C78052C04D054
:104B80000C7809198A42F8D870BD34008D782C4011
:104B900064000419ED0963550C7809198A42ECD8B0
:104BA000F2E7C04670B5040000690E00002803D08B
:104BB0000121494200F084FA25896089A288A9B2BE
:104BC00083B285422CD3CD1AADB2002D2ED0AA428D
:104BD00008D2914230D3891A8BB263819A4203D8AA
:104BE0009B1A9BB29A42FBD9E28821685204520C6C
:104BF00053433000C918FEF707FA63890125591C91
:104C000089B2A2888B4213D900215200891A89B235
:104C100020696181002801D000F032FA280070BDBF
:104C20005500ED1A4D19ADB2002DD0D1618989B270
:104C300052009142ECDBE9E789188BB26381CDE742
:104C4000F8B50400C0680E00002803D001214942D5
:104C500000F036FA258920896189A288ADB283B235
:104C60008FB2884229D3DB1B9BB29A4209D8E779DD
:104C7000FF0906D1E068002801D000F001FA3800F1
:104C8000F8BD95421ED32B009B1A9BB29342FBD2D8
:104C9000E28820685204520C53433100C018FEF7DA
:104CA000B3F96B1C9BB2A2889D4218D90023520015
:104CB0009B1A9BB201272381DCE75100C91B5B18BB
:104CC0009BB2D2E72B00E28820685204520C534377
:104CD0003100C018FEF798F90135A288ABB2520036
:104CE0009342E7DBE4E7C04610B50400C068002843
:104CF00003D00121494200F0E3F92069002803D0E4
:104D00000121494200F0DCF90023E068638123813E
:104D1000002801D000F0B4F92069002801D000F08B
:104D2000AFF9012010BDC04610B51920FBF758FDA2
:104D3000D0238022E1211B0692045A620448054BCD
:104D40000022186049020123FEF74AFB10BDC0464D
:104D500000400340001A0020D02380221B0692044A
:104D6000002801D05A6170479A61FCE710B500F045
:104D7000C7F901235840C0B210BDC046F8B5DE46A1
:104D800057464E4645468346E0B505200C00FDF7E4
:104D90008DF90600600821008019FDF7F1FA430043
:104DA00098468044070005214046FDF7E9FA3B1A82
:104DB0009A46204B8146700080199C4234D81E4987
:104DC000FDF7DEFA451C5B461C6800230422E366FF
:104DD00023680120534002321A4080235B012343A1
:104DE0001A605346E3614B46236243464F2B03D977
:104DF00050214046FDF7C4FAA023E050E36F2200A3
:104E00005D4080237C322D045B0113432D0C1D601B
:104E1000012339003000E366FDF7B2FAF0BCBB466F
:104E2000B246A946A046F8BD0449FDF7A9FA451CBB
:104E3000C9E7C0463F420F008096980040787D0148
:104E40000F4A70B5821A531E9A410E4BD200083297
:104E50001A600D4B0D4C1A601500A3689D432B1E64
:104E6000FAD166240268FF340571D5661460633C8C
:104E70008833FF3CD5639563D450FFF77FFF70BD47
:104E8000F00E002000E0004000F0004000C00040B4
:104E9000F0B557464E46DE4645468446E0B583B0FB
:104EA0001F000CAB18786346914600221B680190E6
:104EB000DA6601325960DA66002F4FDD7A1E9046BD
:104EC0006246127901269202802493463A004640B7
:104ED000760280253700002046461021A2469046E3
:104EE000AD00841B624254414A4664423C400094F7
:104EF0005C46125C2243009C22431A615A6B1142A9
:104F0000FCD052469C58002C10D1B04221D0002237
:104F1000013093468045E4D16346019A1A7103B08B
:104F2000F0BCBB46B246A946A046F0BD5A6D012270
:104F300093465A6B2A42FCD01A6E5A46002AE6D093
:104F4000002C03D0E30701D42407E5D4022040421B
:104F5000E2E7019A002ADAD19346EAE70020DBE78C
:104F6000F0B5DE464E4645465746E0B5060009A870
:104F70000078346880460020E06661600121934635
:104F8000E166002B32DD8022591E52008C4692468B
:104F90008025616F1029FCD00021002801D13179D2
:104FA000890284451CD052461143216102E0A16F61
:104FB00000290DD16159616D0029F8D002204042CD
:104FC00043463371F0BCBB46B246A946A046F0BD8D
:104FD0005A462169115401308342F1D03468D8E730
:104FE0004246012757407A021143DCE70020E7E7F9
:104FF00010B583070AD00300032102E001330B42FE
:1050000005D01A78002AF9D1181A10BD03001968C2
:105010000C4A0D4C8A188A4322420FD15968094A1A
:1050200004338A188A43224208D15968054A043356
:105030008A188A432242F1D000E001331A78002A0C
:10504000FBD1E1E7FFFEFEFE80808080F8B5C04620
:1050500001B40248844601BC604700BF49030020F8
:1050600001B40248844601BC604700BF9909002092
:1050700001B40248844601BC604700BF8902002099
:1050800001B40248844601BC604700BFED01002026
:1050900001B40248844601BC604700BF950D002062
:1050A00001B40248844601BC604700BF710900207A
:1050B00001B40248844601BC604700BF950D002042
:1050C00001B40248844601BC604700BF5D01002076
:1050D00001B40248844601BC604700BFC100002003
:1050E00001B40248844601BC604700BF0D0B00209C
:1050F00001B40248844601BC604700BFB50A0020E5
:1051000001B40248844601BC604700BF350D002051
:1051100054696E795553420054696E795553422053
:1051200044657669636500004E6F207370696E6C2C
:105130006F636B732061726520617661696C616277
:105140006C650000486172647761726520616C6112
:10515000726D20256420616C726561647920636CD6
:1051600061696D65640000000A2A2A2A2050414EB8
:105170004943202A2A2A0A000A0000004861726472
:10518000206173736572740052656C6561736500AC
:10519000626F6F74325F77323571303830000000E3
:1051A000312E352E310000007069636F0000000061
:1051B0006465765F6869645F636F6D706F7369744F
:1051C000650000004D6179203135203230323400E5
:1051D000556E68616E646C65642049525120307868
:1051E00025780A0065702025642025732077617377
:1051F00020616C726561647920617661696C6162BD
:105200006C65000043616E277420636F6E74696E75
:1052100075652078666572206F6E20696E616374B3
:1052200069766520657020256420257300000000E4
:105230006F757400696E00004C454400090400005D
:1052400009022200010100A032090400000103004C
:10525000000009211101000122EF00070581031060
:105260000005000005010906A1018500050719E0F8
:1052700029E715002501950875018102950175083A
:10528000810105081901290595057501910295010E
:1052900075039101050719002AFF00150026FF007C
:1052A000950675088100C005010902A10185010963
:1052B00001A10005091901290515002501950575AC
:1052C000018102950175038101050109300931153C
:1052D00081257F95027508810609381581257F95FE
:1052E0000175088106050C0A38021581257F950194
:1052F00075088106C0C0050C0901A10185021500D1
:1053000026FF0319002AFF03950175108100C005CF
:10531000010905A101850305010930093109320997
:1053200035093309341581257F95067508810205F5
:10533000010939150125083500463B01950175081D
:105340008102050919012920150025019520750103
:105350008102C0001201000200000040FECA0440A9
:10536000000101020301000006005250D3F0754213
:105370008851001006005250E182887F9051001041
:1053800006005250BBFF3CB6A85100100D0A0000A9
:105390009A3A00103A3C0010EA3B00109A3A00108A
:1053A000CC3B0010B43B00103C3B0010EA3A00102C
:1053B000DE3A00105E3F0010443F0010F43C001045
:1053C000723F0010F43C00102C3F0010183F0010FA
:1053D000F43C0010043F0010DA3E0010F43C0010D2
:1053E000F63F0010DA3F0010CE3F0010F43C0010F2
:1053F000F43C0010B03F0010DA3F0010F43C001005
:10540000F43C0010F43C0010F43C0010F43C00109C
:10541000F43C0010F43C00108C3F0010BD4700101D
:10542000D1470010E54700106D480010314A0010C8
:1054300000000000B64800105E490010C04900108E
:10544000AC490010B6480010B6480010B64800102D
:10545000B6480010B648001002490010DE4800109F
:10546000424900100900525000000002385200105A
:08547000080052501200000078
:105478006853001074530010880200108053001005
:1054880094020010A0020010AC020010705400102A
:045498006454001048
:10549C00F0B5C646150000B504001E000268EFF317
:1054AC00108172B61368002BFCD0BFF35F8F0423FE
:1054BC00E356002B2DDB2268BFF35F8F00201060BA
:1054CC0081F31088D0221206127852B290469A427A
:1054DC0003D1002080BCB846F0BD00270BE0236848
:1054EC00BFF35F8F1F6081F310882800310000F03C
:1054FC004BFE0028EDD12268EFF3108172B61368D1
:10550C00002BFCD0BFF35F8F23797F2BE7D9434669
:10551C0002E0D0231B061B6823712368BFF35F8F47
:10552C0000221A6081F310880120D3E7F0B5C6463B
:10553C0000B50D00040000F037FEFA2206000F0043
:10554C00002328000021920000F016FE802336185C
:10555C004F411B069F4202D30126174F7642D023A0
:10556C001B061B68002598460BE02368BFF35F8F72
:10557C001D6081F310883000390000F005FE002812
:10558C0018D12268EFF3108172B61368002BFCD08F
:10559C00BFF35F8F23797F2BE7D9434623712368B1
:1055AC00BFF35F8F00221A6081F31088012080BC4A
:1055BC00B846F0BD0020FAE7FFFFFF7F0268EFF36B
:1055CC00108172B61368002BFCD0BFF35F8FFF23E2
:1055DC0003710368BFF35F8F00221A6081F3108898
:1055EC0040BF704710B5084C2378002B0AD180239C
:1055FC00064807495B051A68C25004338B42FAD13E
:10560C000123237010BDC0460A1A00203814001064
:10561C000001001010B5014B984710BD3914002043
:10562C00034B1A68C0239B009343024A13607047D4
:10563C000C8001400C900140054B1A6880239B00A4
:10564C005340C02292001340024A13607047C04678
:10565C000C8001400C9001401423F0B5D6464F4607
:10566C0046469A46814618880433C0B598460E00C3
:10567C001B88264914009847534607001888434650
:10568C0023491B88984753460500188843462149EF
:10569C001B8898478046FFF7A5FFB847A847FFF738
:1056AC00CBFF221E20D0C02108270220490511E083
:1056BC00002C14D0131B0D2B20D9002D0AD0230045
:1056CC00002A05D00B6E013A3370130001362343C8
:1056DC00002B09D03D008B6A1D401842E8D1002DEB
:1056EC00EDD123001343F5D1FFF79AFFC047FFF725
:1056FC0091FFE0BCBA46B146A846F0BD4B461B78BC
:10570C00013C0B6601239C46E144E8E74946000056
:10571C0045580000464300000022154B10B59A6016
:10572C00DA601A615A619A61DA611A625A629A6293
:10573C00DA621A635A639A63DA631A645A649A6473
:10574C00DA641A655A659A65DA651A665A669A6653
:10575C00DA661A675A679A67DA67F03292000021A4
:10576C00044800F019FD044B044A1A6010BDC046F1
:10577C0000001050D015002094190020800110500A
:10578C00F0B557464E464546DE46E0B5254B00255E
:10579C009F6D012687B0002F23D0234B9946012300
:1057AC009B46224B984601E0202D1AD032002C004B
:1057BC000135B2463A40EDB27600002AF4D04B46A1
:1057CC0052469A655B46640864002B40E4186401F9
:1057DC004444200000F0B8FB002809D153469F43F5
:1057EC00E2D107B0F0BCBB46B246A946A046F0BD1C
:1057FC00E28AA37802A801920021062206300093C7
:10580C0000F0CAFCE02302A9DB008B80009B019A0C
:10581C000B7203A80121059200F0BEFB200000F0E2
:10582C002BFBDBE7000011500030115090150020CD
:10583C009823C84AF0B5D55880232C009B0210261B
:10584C0085B01C401D427AD0C34BC44C9A6AC44BE1
:10585C0000261A603B23E35C022B00D1DFE07B23A4
:10586C00E35C022B00D1B9E1BB23E35C022B00D13A
:10587C00A9E1FB23E35C022B00D199E13C23FF332C
:10588C00E35C022B00D158E17C23FF33E35C022B59
:10589C0000D145E1BC23FF33E35C022B00D132E1A4
:1058AC00FC23FF33E35C022B00D11FE1AD4BE35C27
:1058BC00022B00D10EE1AC4BE35C022B00D1FDE0DE
:1058CC00AA4BE35C022B00D1ECE0A94BE35C022B6E
:1058DC0000D1DBE0A74BE35C022B00D1CAE0A64B66
:1058EC00E35C022B00D1ABE0A44BE35C022B00D1B8
:1058FC007FE1A34BE35C022B00D196E1002E08D193
:10590C00A04B1B78002B04D180219F4A9033890235
:10591C00D150904B0A229C6C6B460021981D00F0D4
:10592C003BFCC023640501AE9B00640D338030004A
:10593C0002940121802400F02FFB944EA402EB066C
:10594C0069D480235B021D4214D0012223211C4305
:10595C00824B5A54DA70C0238D4ADB00019302ABA0
:10596C0003CA03C3012101A800F016FB8022864B59
:10597C0092021A6580235B011D4233D18023DB0127
:10598C001D421CD180231B021D4204D1AC4200D00D
:10599C00C8E105B0F0BD1C436B460A220021981DDE
:1059AC0000F0FAFBA02301AEDB00338001213000B4
:1059BC0000F0F2FA8022744B12011A65E6E71C43E0
:1059CC006B460A220021981D00F0E6FB802301AEF5
:1059DC00DB0033800121300000F0DEFA10226A4B2C
:1059EC001A65CFE700221C435A4B01AE1A60FFF731
:1059FC0093FE6B460A220021981D00F0CDFB8023FC
:105A0C005B0033800121300000F0C6FA80225E4B2F
:105A1C0012031A65B2E7FFF7B3FE340091E738338F
:105A2C00E65C002E00D11AE70233E25C002A00D1BA
:105A3C0015E7200000222030E25400F04FFA0EE768
:105A4C00544BE75C002F00D14EE70233E25C002A96
:105A5C0000D060E1494BE35C022B00D1DBE0484B0A
:105A6C00E35C022B00D054E74B4BE35C002B00D0E3
:105A7C00E0E04EE7494BE75C002F00D12FE7023303
:105A8C00E25C002A00D03EE13E0028E7444BE75C94
:105A9C00002F00D11EE70233E25C002A00D02AE17D
:105AAC003E0017E73F4BE75C002F00D10DE70233B8
:105ABC00E25C002A00D016E13E0006E73A4BE75CB8
:105ACC00002F00D1FCE60233E25C002A00D002E198
